{
  "abi": [
    {
      "inputs": [
        {
          "internalType": "contract ZKMintVerifier",
          "name": "_verifier",
          "type": "address"
        },
        {
          "internalType": "string",
          "name": "initPortPrefix",
          "type": "string"
        },
        {
          "internalType": "contract ConsensusStateManager",
          "name": "_consensusStateManager",
          "type": "address"
        }
      ],
      "stateMutability": "nonpayable",
      "type": "constructor"
    },
    {
      "inputs": [],
      "name": "ackPacketCommitmentAlreadyExists",
      "type": "error"
    },
    {
      "inputs": [],
      "name": "channelNotOwnedByPortAddress",
      "type": "error"
    },
    {
      "inputs": [],
      "name": "channelNotOwnedBySender",
      "type": "error"
    },
    {
      "inputs": [],
      "name": "clientAlreadyCreated",
      "type": "error"
    },
    {
      "inputs": [],
      "name": "clientNotCreated",
      "type": "error"
    },
    {
      "inputs": [],
      "name": "consensusStateVerificationFailed",
      "type": "error"
    },
    {
      "inputs": [],
      "name": "invalidCounterParty",
      "type": "error"
    },
    {
      "inputs": [],
      "name": "invalidCounterPartyPortId",
      "type": "error"
    },
    {
      "inputs": [],
      "name": "invalidHexStringLength",
      "type": "error"
    },
    {
      "inputs": [],
      "name": "invalidPacketSequence",
      "type": "error"
    },
    {
      "inputs": [],
      "name": "packetCommitmentNotFound",
      "type": "error"
    },
    {
      "inputs": [],
      "name": "packetNotTimedOut",
      "type": "error"
    },
    {
      "inputs": [],
      "name": "packetReceiptAlreadyExists",
      "type": "error"
    },
    {
      "inputs": [],
      "name": "receiverNotIndtendedPacketDestination",
      "type": "error"
    },
    {
      "inputs": [],
      "name": "receiverNotOriginPacketSender",
      "type": "error"
    },
    {
      "inputs": [],
      "name": "unexpectedPacketSequence",
      "type": "error"
    },
    {
      "anonymous": false,
      "inputs": [
        {
          "indexed": true,
          "internalType": "address",
          "name": "sourcePortAddress",
          "type": "address"
        },
        {
          "indexed": true,
          "internalType": "bytes32",
          "name": "sourceChannelId",
          "type": "bytes32"
        },
        {
          "indexed": false,
          "internalType": "uint64",
          "name": "sequence",
          "type": "uint64"
        }
      ],
      "name": "Acknowledgement",
      "type": "event"
    },
    {
      "anonymous": false,
      "inputs": [
        {
          "indexed": true,
          "internalType": "address",
          "name": "portAddress",
          "type": "address"
        },
        {
          "indexed": true,
          "internalType": "bytes32",
          "name": "channelId",
          "type": "bytes32"
        }
      ],
      "name": "CloseIbcChannel",
      "type": "event"
    },
    {
      "anonymous": false,
      "inputs": [
        {
          "indexed": true,
          "internalType": "address",
          "name": "portAddress",
          "type": "address"
        },
        {
          "indexed": false,
          "internalType": "bytes32",
          "name": "channelId",
          "type": "bytes32"
        }
      ],
      "name": "ConnectIbcChannel",
      "type": "event"
    },
    {
      "anonymous": false,
      "inputs": [
        {
          "indexed": true,
          "internalType": "address",
          "name": "portAddress",
          "type": "address"
        },
        {
          "indexed": false,
          "internalType": "string",
          "name": "version",
          "type": "string"
        },
        {
          "indexed": false,
          "internalType": "enum ChannelOrder",
          "name": "ordering",
          "type": "uint8"
        },
        {
          "indexed": false,
          "internalType": "bool",
          "name": "feeEnabled",
          "type": "bool"
        },
        {
          "indexed": false,
          "internalType": "string[]",
          "name": "connectionHops",
          "type": "string[]"
        },
        {
          "indexed": false,
          "internalType": "string",
          "name": "counterpartyPortId",
          "type": "string"
        },
        {
          "indexed": false,
          "internalType": "bytes32",
          "name": "counterpartyChannelId",
          "type": "bytes32"
        }
      ],
      "name": "OpenIbcChannel",
      "type": "event"
    },
    {
      "anonymous": false,
      "inputs": [
        {
          "indexed": true,
          "internalType": "address",
          "name": "previousOwner",
          "type": "address"
        },
        {
          "indexed": true,
          "internalType": "address",
          "name": "newOwner",
          "type": "address"
        }
      ],
      "name": "OwnershipTransferred",
      "type": "event"
    },
    {
      "anonymous": false,
      "inputs": [
        {
          "indexed": true,
          "internalType": "address",
          "name": "destPortAddress",
          "type": "address"
        },
        {
          "indexed": true,
          "internalType": "bytes32",
          "name": "destChannelId",
          "type": "bytes32"
        },
        {
          "indexed": false,
          "internalType": "uint64",
          "name": "sequence",
          "type": "uint64"
        }
      ],
      "name": "RecvPacket",
      "type": "event"
    },
    {
      "anonymous": false,
      "inputs": [
        {
          "indexed": true,
          "internalType": "address",
          "name": "sourcePortAddress",
          "type": "address"
        },
        {
          "indexed": true,
          "internalType": "bytes32",
          "name": "sourceChannelId",
          "type": "bytes32"
        },
        {
          "indexed": false,
          "internalType": "bytes",
          "name": "packet",
          "type": "bytes"
        },
        {
          "indexed": false,
          "internalType": "uint64",
          "name": "sequence",
          "type": "uint64"
        },
        {
          "indexed": false,
          "internalType": "uint64",
          "name": "timeoutTimestamp",
          "type": "uint64"
        }
      ],
      "name": "SendPacket",
      "type": "event"
    },
    {
      "anonymous": false,
      "inputs": [
        {
          "indexed": true,
          "internalType": "address",
          "name": "sourcePortAddress",
          "type": "address"
        },
        {
          "indexed": true,
          "internalType": "bytes32",
          "name": "sourceChannelId",
          "type": "bytes32"
        },
        {
          "indexed": true,
          "internalType": "uint64",
          "name": "sequence",
          "type": "uint64"
        }
      ],
      "name": "Timeout",
      "type": "event"
    },
    {
      "anonymous": false,
      "inputs": [
        {
          "indexed": true,
          "internalType": "address",
          "name": "writerPortAddress",
          "type": "address"
        },
        {
          "indexed": true,
          "internalType": "bytes32",
          "name": "writerChannelId",
          "type": "bytes32"
        },
        {
          "indexed": false,
          "internalType": "uint64",
          "name": "sequence",
          "type": "uint64"
        },
        {
          "components": [
            {
              "internalType": "bool",
              "name": "success",
              "type": "bool"
            },
            {
              "internalType": "bytes",
              "name": "data",
              "type": "bytes"
            }
          ],
          "indexed": false,
          "internalType": "struct AckPacket",
          "name": "ackPacket",
          "type": "tuple"
        }
      ],
      "name": "WriteAckPacket",
      "type": "event"
    },
    {
      "anonymous": false,
      "inputs": [
        {
          "indexed": true,
          "internalType": "address",
          "name": "writerPortAddress",
          "type": "address"
        },
        {
          "indexed": true,
          "internalType": "bytes32",
          "name": "writerChannelId",
          "type": "bytes32"
        },
        {
          "indexed": false,
          "internalType": "uint64",
          "name": "sequence",
          "type": "uint64"
        },
        {
          "components": [
            {
              "internalType": "uint64",
              "name": "revision_number",
              "type": "uint64"
            },
            {
              "internalType": "uint64",
              "name": "revision_height",
              "type": "uint64"
            }
          ],
          "indexed": false,
          "internalType": "struct Height",
          "name": "timeoutHeight",
          "type": "tuple"
        },
        {
          "indexed": false,
          "internalType": "uint64",
          "name": "timeoutTimestamp",
          "type": "uint64"
        }
      ],
      "name": "WriteTimeoutPacket",
      "type": "event"
    },
    {
      "inputs": [
        {
          "internalType": "contract IbcPacketReceiver",
          "name": "receiver",
          "type": "address"
        },
        {
          "components": [
            {
              "components": [
                {
                  "internalType": "string",
                  "name": "portId",
                  "type": "string"
                },
                {
                  "internalType": "bytes32",
                  "name": "channelId",
                  "type": "bytes32"
                }
              ],
              "internalType": "struct IbcEndpoint",
              "name": "src",
              "type": "tuple"
            },
            {
              "components": [
                {
                  "internalType": "string",
                  "name": "portId",
                  "type": "string"
                },
                {
                  "internalType": "bytes32",
                  "name": "channelId",
                  "type": "bytes32"
                }
              ],
              "internalType": "struct IbcEndpoint",
              "name": "dest",
              "type": "tuple"
            },
            {
              "internalType": "uint64",
              "name": "sequence",
              "type": "uint64"
            },
            {
              "internalType": "bytes",
              "name": "data",
              "type": "bytes"
            },
            {
              "components": [
                {
                  "internalType": "uint64",
                  "name": "revision_number",
                  "type": "uint64"
                },
                {
                  "internalType": "uint64",
                  "name": "revision_height",
                  "type": "uint64"
                }
              ],
              "internalType": "struct Height",
              "name": "timeoutHeight",
              "type": "tuple"
            },
            {
              "internalType": "uint64",
              "name": "timeoutTimestamp",
              "type": "uint64"
            }
          ],
          "internalType": "struct IbcPacket",
          "name": "packet",
          "type": "tuple"
        },
        {
          "components": [
            {
              "internalType": "bool",
              "name": "success",
              "type": "bool"
            },
            {
              "internalType": "bytes",
              "name": "data",
              "type": "bytes"
            }
          ],
          "internalType": "struct AckPacket",
          "name": "ackPacket",
          "type": "tuple"
        },
        {
          "components": [
            {
              "components": [
                {
                  "internalType": "uint64",
                  "name": "revision_number",
                  "type": "uint64"
                },
                {
                  "internalType": "uint64",
                  "name": "revision_height",
                  "type": "uint64"
                }
              ],
              "internalType": "struct Height",
              "name": "proofHeight",
              "type": "tuple"
            },
            {
              "internalType": "bytes",
              "name": "proof",
              "type": "bytes"
            }
          ],
          "internalType": "struct Proof",
          "name": "proof",
          "type": "tuple"
        }
      ],
      "name": "acknowledgement",
      "outputs": [],
      "stateMutability": "nonpayable",
      "type": "function"
    },
    {
      "inputs": [
        {
          "internalType": "bytes32",
          "name": "channelId",
          "type": "bytes32"
        }
      ],
      "name": "closeIbcChannel",
      "outputs": [],
      "stateMutability": "nonpayable",
      "type": "function"
    },
    {
      "inputs": [
        {
          "internalType": "contract IbcChannelReceiver",
          "name": "portAddress",
          "type": "address"
        },
        {
          "internalType": "bytes32",
          "name": "channelId",
          "type": "bytes32"
        },
        {
          "internalType": "string[]",
          "name": "connectionHops",
          "type": "string[]"
        },
        {
          "internalType": "enum ChannelOrder",
          "name": "ordering",
          "type": "uint8"
        },
        {
          "internalType": "bool",
          "name": "feeEnabled",
          "type": "bool"
        },
        {
          "internalType": "string",
          "name": "counterpartyPortId",
          "type": "string"
        },
        {
          "internalType": "bytes32",
          "name": "counterpartyChannelId",
          "type": "bytes32"
        },
        {
          "internalType": "string",
          "name": "counterpartyVersion",
          "type": "string"
        },
        {
          "components": [
            {
              "components": [
                {
                  "internalType": "uint64",
                  "name": "revision_number",
                  "type": "uint64"
                },
                {
                  "internalType": "uint64",
                  "name": "revision_height",
                  "type": "uint64"
                }
              ],
              "internalType": "struct Height",
              "name": "proofHeight",
              "type": "tuple"
            },
            {
              "internalType": "bytes",
              "name": "proof",
              "type": "bytes"
            }
          ],
          "internalType": "struct Proof",
          "name": "proof",
          "type": "tuple"
        }
      ],
      "name": "connectIbcChannel",
      "outputs": [],
      "stateMutability": "nonpayable",
      "type": "function"
    },
    {
      "inputs": [
        {
          "components": [
            {
              "internalType": "bytes",
              "name": "clientState",
              "type": "bytes"
            },
            {
              "components": [
                {
                  "internalType": "uint256",
                  "name": "app_hash",
                  "type": "uint256"
                },
                {
                  "internalType": "uint256",
                  "name": "valset_hash",
                  "type": "uint256"
                },
                {
                  "internalType": "uint256",
                  "name": "time",
                  "type": "uint256"
                },
                {
                  "internalType": "uint256",
                  "name": "height",
                  "type": "uint256"
                }
              ],
              "internalType": "struct ConsensusState",
              "name": "consensusState",
              "type": "tuple"
            }
          ],
          "internalType": "struct InitClientMsg",
          "name": "initClientMsg",
          "type": "tuple"
        }
      ],
      "name": "createClient",
      "outputs": [],
      "stateMutability": "nonpayable",
      "type": "function"
    },
    {
      "inputs": [
        {
          "internalType": "address",
          "name": "portAddress",
          "type": "address"
        },
        {
          "internalType": "bytes32",
          "name": "channelId",
          "type": "bytes32"
        }
      ],
      "name": "getChannel",
      "outputs": [
        {
          "components": [
            {
              "internalType": "string",
              "name": "version",
              "type": "string"
            },
            {
              "internalType": "enum ChannelOrder",
              "name": "ordering",
              "type": "uint8"
            },
            {
              "internalType": "bool",
              "name": "feeEnabled",
              "type": "bool"
            },
            {
              "internalType": "string[]",
              "name": "connectionHops",
              "type": "string[]"
            },
            {
              "internalType": "string",
              "name": "counterpartyPortId",
              "type": "string"
            },
            {
              "internalType": "bytes32",
              "name": "counterpartyChannelId",
              "type": "bytes32"
            }
          ],
          "internalType": "struct Channel",
          "name": "",
          "type": "tuple"
        }
      ],
      "stateMutability": "view",
      "type": "function"
    },
    {
      "inputs": [
        {
          "internalType": "uint256",
          "name": "height",
          "type": "uint256"
        }
      ],
      "name": "getOptimisticConsensusState",
      "outputs": [
        {
          "internalType": "uint256",
          "name": "appHash",
          "type": "uint256"
        },
        {
          "internalType": "uint256",
          "name": "fraudProofEndTime",
          "type": "uint256"
        },
        {
          "internalType": "bool",
          "name": "ended",
          "type": "bool"
        }
      ],
      "stateMutability": "view",
      "type": "function"
    },
    {
      "inputs": [],
      "name": "latestConsensusState",
      "outputs": [
        {
          "internalType": "uint256",
          "name": "app_hash",
          "type": "uint256"
        },
        {
          "internalType": "uint256",
          "name": "valset_hash",
          "type": "uint256"
        },
        {
          "internalType": "uint256",
          "name": "time",
          "type": "uint256"
        },
        {
          "internalType": "uint256",
          "name": "height",
          "type": "uint256"
        }
      ],
      "stateMutability": "view",
      "type": "function"
    },
    {
      "inputs": [
        {
          "internalType": "address",
          "name": "portAddress",
          "type": "address"
        },
        {
          "internalType": "bytes32",
          "name": "channelId",
          "type": "bytes32"
        },
        {
          "components": [
            {
              "components": [
                {
                  "internalType": "uint64",
                  "name": "revision_number",
                  "type": "uint64"
                },
                {
                  "internalType": "uint64",
                  "name": "revision_height",
                  "type": "uint64"
                }
              ],
              "internalType": "struct Height",
              "name": "proofHeight",
              "type": "tuple"
            },
            {
              "internalType": "bytes",
              "name": "proof",
              "type": "bytes"
            }
          ],
          "internalType": "struct Proof",
          "name": "proof",
          "type": "tuple"
        }
      ],
      "name": "onCloseIbcChannel",
      "outputs": [],
      "stateMutability": "nonpayable",
      "type": "function"
    },
    {
      "inputs": [
        {
          "internalType": "contract IbcChannelReceiver",
          "name": "portAddress",
          "type": "address"
        },
        {
          "internalType": "string",
          "name": "version",
          "type": "string"
        },
        {
          "internalType": "enum ChannelOrder",
          "name": "ordering",
          "type": "uint8"
        },
        {
          "internalType": "bool",
          "name": "feeEnabled",
          "type": "bool"
        },
        {
          "internalType": "string[]",
          "name": "connectionHops",
          "type": "string[]"
        },
        {
          "components": [
            {
              "internalType": "string",
              "name": "portId",
              "type": "string"
            },
            {
              "internalType": "bytes32",
              "name": "channelId",
              "type": "bytes32"
            },
            {
              "internalType": "string",
              "name": "version",
              "type": "string"
            }
          ],
          "internalType": "struct CounterParty",
          "name": "counterparty",
          "type": "tuple"
        },
        {
          "components": [
            {
              "components": [
                {
                  "internalType": "uint64",
                  "name": "revision_number",
                  "type": "uint64"
                },
                {
                  "internalType": "uint64",
                  "name": "revision_height",
                  "type": "uint64"
                }
              ],
              "internalType": "struct Height",
              "name": "proofHeight",
              "type": "tuple"
            },
            {
              "internalType": "bytes",
              "name": "proof",
              "type": "bytes"
            }
          ],
          "internalType": "struct Proof",
          "name": "proof",
          "type": "tuple"
        }
      ],
      "name": "openIbcChannel",
      "outputs": [],
      "stateMutability": "nonpayable",
      "type": "function"
    },
    {
      "inputs": [],
      "name": "owner",
      "outputs": [
        {
          "internalType": "address",
          "name": "",
          "type": "address"
        }
      ],
      "stateMutability": "view",
      "type": "function"
    },
    {
      "inputs": [
        {
          "internalType": "address",
          "name": "",
          "type": "address"
        },
        {
          "internalType": "bytes32",
          "name": "",
          "type": "bytes32"
        }
      ],
      "name": "portChannelMap",
      "outputs": [
        {
          "internalType": "string",
          "name": "version",
          "type": "string"
        },
        {
          "internalType": "enum ChannelOrder",
          "name": "ordering",
          "type": "uint8"
        },
        {
          "internalType": "bool",
          "name": "feeEnabled",
          "type": "bool"
        },
        {
          "internalType": "string",
          "name": "counterpartyPortId",
          "type": "string"
        },
        {
          "internalType": "bytes32",
          "name": "counterpartyChannelId",
          "type": "bytes32"
        }
      ],
      "stateMutability": "view",
      "type": "function"
    },
    {
      "inputs": [
        {
          "internalType": "address",
          "name": "addr",
          "type": "address"
        },
        {
          "internalType": "string",
          "name": "portId",
          "type": "string"
        }
      ],
      "name": "portIdAddressMatch",
      "outputs": [
        {
          "internalType": "bool",
          "name": "",
          "type": "bool"
        }
      ],
      "stateMutability": "view",
      "type": "function"
    },
    {
      "inputs": [],
      "name": "portPrefix",
      "outputs": [
        {
          "internalType": "string",
          "name": "",
          "type": "string"
        }
      ],
      "stateMutability": "view",
      "type": "function"
    },
    {
      "inputs": [
        {
          "internalType": "contract IbcPacketReceiver",
          "name": "receiver",
          "type": "address"
        },
        {
          "components": [
            {
              "components": [
                {
                  "internalType": "string",
                  "name": "portId",
                  "type": "string"
                },
                {
                  "internalType": "bytes32",
                  "name": "channelId",
                  "type": "bytes32"
                }
              ],
              "internalType": "struct IbcEndpoint",
              "name": "src",
              "type": "tuple"
            },
            {
              "components": [
                {
                  "internalType": "string",
                  "name": "portId",
                  "type": "string"
                },
                {
                  "internalType": "bytes32",
                  "name": "channelId",
                  "type": "bytes32"
                }
              ],
              "internalType": "struct IbcEndpoint",
              "name": "dest",
              "type": "tuple"
            },
            {
              "internalType": "uint64",
              "name": "sequence",
              "type": "uint64"
            },
            {
              "internalType": "bytes",
              "name": "data",
              "type": "bytes"
            },
            {
              "components": [
                {
                  "internalType": "uint64",
                  "name": "revision_number",
                  "type": "uint64"
                },
                {
                  "internalType": "uint64",
                  "name": "revision_height",
                  "type": "uint64"
                }
              ],
              "internalType": "struct Height",
              "name": "timeoutHeight",
              "type": "tuple"
            },
            {
              "internalType": "uint64",
              "name": "timeoutTimestamp",
              "type": "uint64"
            }
          ],
          "internalType": "struct IbcPacket",
          "name": "packet",
          "type": "tuple"
        },
        {
          "components": [
            {
              "components": [
                {
                  "internalType": "uint64",
                  "name": "revision_number",
                  "type": "uint64"
                },
                {
                  "internalType": "uint64",
                  "name": "revision_height",
                  "type": "uint64"
                }
              ],
              "internalType": "struct Height",
              "name": "proofHeight",
              "type": "tuple"
            },
            {
              "internalType": "bytes",
              "name": "proof",
              "type": "bytes"
            }
          ],
          "internalType": "struct Proof",
          "name": "proof",
          "type": "tuple"
        }
      ],
      "name": "recvPacket",
      "outputs": [],
      "stateMutability": "nonpayable",
      "type": "function"
    },
    {
      "inputs": [],
      "name": "renounceOwnership",
      "outputs": [],
      "stateMutability": "nonpayable",
      "type": "function"
    },
    {
      "inputs": [
        {
          "internalType": "bytes32",
          "name": "channelId",
          "type": "bytes32"
        },
        {
          "internalType": "bytes",
          "name": "packet",
          "type": "bytes"
        },
        {
          "internalType": "uint64",
          "name": "timeoutTimestamp",
          "type": "uint64"
        }
      ],
      "name": "sendPacket",
      "outputs": [],
      "stateMutability": "nonpayable",
      "type": "function"
    },
    {
      "inputs": [
        {
          "internalType": "string",
          "name": "_portPrefix",
          "type": "string"
        }
      ],
      "name": "setPortPrefix",
      "outputs": [],
      "stateMutability": "nonpayable",
      "type": "function"
    },
    {
      "inputs": [
        {
          "internalType": "contract IbcPacketReceiver",
          "name": "receiver",
          "type": "address"
        },
        {
          "components": [
            {
              "components": [
                {
                  "internalType": "string",
                  "name": "portId",
                  "type": "string"
                },
                {
                  "internalType": "bytes32",
                  "name": "channelId",
                  "type": "bytes32"
                }
              ],
              "internalType": "struct IbcEndpoint",
              "name": "src",
              "type": "tuple"
            },
            {
              "components": [
                {
                  "internalType": "string",
                  "name": "portId",
                  "type": "string"
                },
                {
                  "internalType": "bytes32",
                  "name": "channelId",
                  "type": "bytes32"
                }
              ],
              "internalType": "struct IbcEndpoint",
              "name": "dest",
              "type": "tuple"
            },
            {
              "internalType": "uint64",
              "name": "sequence",
              "type": "uint64"
            },
            {
              "internalType": "bytes",
              "name": "data",
              "type": "bytes"
            },
            {
              "components": [
                {
                  "internalType": "uint64",
                  "name": "revision_number",
                  "type": "uint64"
                },
                {
                  "internalType": "uint64",
                  "name": "revision_height",
                  "type": "uint64"
                }
              ],
              "internalType": "struct Height",
              "name": "timeoutHeight",
              "type": "tuple"
            },
            {
              "internalType": "uint64",
              "name": "timeoutTimestamp",
              "type": "uint64"
            }
          ],
          "internalType": "struct IbcPacket",
          "name": "packet",
          "type": "tuple"
        },
        {
          "components": [
            {
              "components": [
                {
                  "internalType": "uint64",
                  "name": "revision_number",
                  "type": "uint64"
                },
                {
                  "internalType": "uint64",
                  "name": "revision_height",
                  "type": "uint64"
                }
              ],
              "internalType": "struct Height",
              "name": "proofHeight",
              "type": "tuple"
            },
            {
              "internalType": "bytes",
              "name": "proof",
              "type": "bytes"
            }
          ],
          "internalType": "struct Proof",
          "name": "proof",
          "type": "tuple"
        }
      ],
      "name": "timeout",
      "outputs": [],
      "stateMutability": "nonpayable",
      "type": "function"
    },
    {
      "inputs": [
        {
          "internalType": "address",
          "name": "newOwner",
          "type": "address"
        }
      ],
      "name": "transferOwnership",
      "outputs": [],
      "stateMutability": "nonpayable",
      "type": "function"
    },
    {
      "inputs": [
        {
          "components": [
            {
              "internalType": "uint256",
              "name": "app_hash",
              "type": "uint256"
            },
            {
              "internalType": "uint256",
              "name": "valset_hash",
              "type": "uint256"
            },
            {
              "internalType": "uint256",
              "name": "time",
              "type": "uint256"
            },
            {
              "internalType": "uint256",
              "name": "height",
              "type": "uint256"
            }
          ],
          "internalType": "struct ConsensusState",
          "name": "consensusState",
          "type": "tuple"
        },
        {
          "components": [
            {
              "internalType": "uint256[2]",
              "name": "a",
              "type": "uint256[2]"
            },
            {
              "internalType": "uint256[2][2]",
              "name": "b",
              "type": "uint256[2][2]"
            },
            {
              "internalType": "uint256[2]",
              "name": "c",
              "type": "uint256[2]"
            }
          ],
          "internalType": "struct ZkProof",
          "name": "zkProof",
          "type": "tuple"
        }
      ],
      "name": "updateClientWithConsensusState",
      "outputs": [],
      "stateMutability": "nonpayable",
      "type": "function"
    },
    {
      "inputs": [
        {
          "internalType": "uint256",
          "name": "height",
          "type": "uint256"
        },
        {
          "internalType": "uint256",
          "name": "appHash",
          "type": "uint256"
        }
      ],
      "name": "updateClientWithOptimisticConsensusState",
      "outputs": [
        {
          "internalType": "uint256",
          "name": "fraudProofEndTime",
          "type": "uint256"
        },
        {
          "internalType": "bool",
          "name": "ended",
          "type": "bool"
        }
      ],
      "stateMutability": "nonpayable",
      "type": "function"
    },
    {
      "inputs": [
        {
          "components": [
            {
              "internalType": "bytes",
              "name": "clientState",
              "type": "bytes"
            },
            {
              "components": [
                {
                  "internalType": "uint256",
                  "name": "app_hash",
                  "type": "uint256"
                },
                {
                  "internalType": "uint256",
                  "name": "valset_hash",
                  "type": "uint256"
                },
                {
                  "internalType": "uint256",
                  "name": "time",
                  "type": "uint256"
                },
                {
                  "internalType": "uint256",
                  "name": "height",
                  "type": "uint256"
                }
              ],
              "internalType": "struct ConsensusState",
              "name": "consensusState",
              "type": "tuple"
            }
          ],
          "internalType": "struct UpgradeClientMsg",
          "name": "upgradeClientMsg",
          "type": "tuple"
        }
      ],
      "name": "upgradeClient",
      "outputs": [],
      "stateMutability": "nonpayable",
      "type": "function"
    },
    {
      "inputs": [
        {
          "internalType": "address",
          "name": "receiver",
          "type": "address"
        },
        {
          "components": [
            {
              "components": [
                {
                  "internalType": "string",
                  "name": "portId",
                  "type": "string"
                },
                {
                  "internalType": "bytes32",
                  "name": "channelId",
                  "type": "bytes32"
                }
              ],
              "internalType": "struct IbcEndpoint",
              "name": "src",
              "type": "tuple"
            },
            {
              "components": [
                {
                  "internalType": "string",
                  "name": "portId",
                  "type": "string"
                },
                {
                  "internalType": "bytes32",
                  "name": "channelId",
                  "type": "bytes32"
                }
              ],
              "internalType": "struct IbcEndpoint",
              "name": "dest",
              "type": "tuple"
            },
            {
              "internalType": "uint64",
              "name": "sequence",
              "type": "uint64"
            },
            {
              "internalType": "bytes",
              "name": "data",
              "type": "bytes"
            },
            {
              "components": [
                {
                  "internalType": "uint64",
                  "name": "revision_number",
                  "type": "uint64"
                },
                {
                  "internalType": "uint64",
                  "name": "revision_height",
                  "type": "uint64"
                }
              ],
              "internalType": "struct Height",
              "name": "timeoutHeight",
              "type": "tuple"
            },
            {
              "internalType": "uint64",
              "name": "timeoutTimestamp",
              "type": "uint64"
            }
          ],
          "internalType": "struct IbcPacket",
          "name": "packet",
          "type": "tuple"
        }
      ],
      "name": "writeTimeoutPacket",
      "outputs": [],
      "stateMutability": "nonpayable",
      "type": "function"
    }
  ],
  "bytecode": {
    "object": "0x60806040526001805460ff60a01b191690553480156200001e57600080fd5b506040516200533538038062005335833981016040819052620000419162000148565b6200004c33620000b7565b600180546001600160a01b0319166001600160a01b0385161790556006620000758382620002d4565b5090516007805463ffffffff191663ffffffff909216919091179055600f80546001600160a01b0319166001600160a01b0390921691909117905550620003a0565b600080546001600160a01b038381166001600160a01b0319831681178455604051919092169283917f8be0079c531659141344cd1fd0a4f28419497f9722a3daafe3b4186f6b6457e09190a35050565b6001600160a01b03811681146200011d57600080fd5b50565b634e487b7160e01b600052604160045260246000fd5b8051620001438162000107565b919050565b6000806000606084860312156200015e57600080fd5b83516200016b8162000107565b602085810151919450906001600160401b03808211156200018b57600080fd5b818701915087601f830112620001a057600080fd5b815181811115620001b557620001b562000120565b604051601f8201601f19908116603f01168101908382118183101715620001e057620001e062000120565b816040528281528a86848701011115620001f957600080fd5b600093505b828410156200021d5784840186015181850187015292850192620001fe565b60008684830101528097505050505050506200023c6040850162000136565b90509250925092565b600181811c908216806200025a57607f821691505b6020821081036200027b57634e487b7160e01b600052602260045260246000fd5b50919050565b601f821115620002cf57600081815260208120601f850160051c81016020861015620002aa5750805b601f850160051c820191505b81811015620002cb57828155600101620002b6565b5050505b505050565b81516001600160401b03811115620002f057620002f062000120565b620003088162000301845462000245565b8462000281565b602080601f831160018114620003405760008415620003275750858301515b600019600386901b1c1916600185901b178555620002cb565b600085815260208120601f198616915b82811015620003715788860151825594840194600190910190840162000350565b5085821015620003905787850151600019600388901b60f8161c191681555b5050505050600190811b01905550565b614f8580620003b06000396000f3fe608060405234801561001057600080fd5b506004361061014c5760003560e01c8063b2b1bf03116100c3578063eb86ffdb1161007c578063eb86ffdb14610304578063ecb0392914610334578063ecbb692814610347578063f2fde38b1461035a578063f4eac7851461036d578063f4ecbb151461038057600080fd5b8063b2b1bf031461024e578063c2a2514d14610272578063c3e1155c146102a8578063da4b5a8d146102bb578063dece4d01146102ce578063e36e013f146102e157600080fd5b806380840e6b1161011557806380840e6b146101bf5780638b24b4cb146101d25780638da5cb5b146101e55780639eb49818146102005780639f59ae7114610228578063ac9c50b61461023b57600080fd5b806280d0b11461015157806342852d2414610166578063715018a61461018f5780637774a6d3146101975780637e9077b0146101ac575b600080fd5b61016461015f366004613494565b610393565b005b610179610174366004613509565b6105e0565b60405161018691906135bd565b60405180910390f35b61016461089a565b61019f6108ae565b604051610186919061368a565b6101646101ba36600461375a565b61093c565b6101646101cd366004613857565b610b62565b6101646101e0366004613893565b610bba565b6000546040516001600160a01b039091168152602001610186565b61021361020e3660046138ac565b610ee4565b60408051928352901515602083015201610186565b6101646102363660046138ce565b610f94565b61016461024936600461390f565b610fc7565b61026161025c366004613509565b611125565b60405161018695949392919061395e565b6002546003546004546005546102889392919084565b604080519485526020850193909352918301526060820152608001610186565b6101646102b63660046139c2565b611277565b6101646102c9366004613494565b611556565b6101646102dc366004613a1f565b611d8b565b6102f46102ef366004613a66565b611e67565b6040519015158152602001610186565b610317610312366004613893565b611f54565b604080519384526020840192909252151590820152606001610186565b610164610342366004613aba565b612000565b610164610355366004613bd5565b6123f4565b610164610368366004613c23565b61285f565b61016461037b366004613c40565b6128dd565b61016461038e366004613857565b612f0b565b6103ab836103a18480613ce2565b6102ef9080613d02565b6103cb576040516001627109bd60e01b0319815260040160405180910390fd5b600f5460405163298be15960e21b81526001600160a01b039091169063a62f8564906103fb908490600401613e1a565b60006040518083038186803b15801561041357600080fd5b505afa158015610427573d6000803e3d6000fd5b505050506001600160a01b0383166000908152600c602052604081208161044e8580613ce2565b60200135815260200190815260200160002060008460400160208101906104759190613e92565b6001600160401b0316815260208101919091526040016000205460ff169050806104b25760405163ca89746b60e01b815260040160405180910390fd5b60405163180be60d60e21b81526001600160a01b0385169063602f9834906104de908690600401613fb2565b600060405180830381600087803b1580156104f857600080fd5b505af115801561050c573d6000803e3d6000fd5b5050506001600160a01b0385166000908152600c6020526040812091506105338580613ce2565b602001358152602001908152602001600020600084604001602081019061055a9190613e92565b6001600160401b0316815260208101919091526040908101600020805460ff1916905561058d9060608501908501613e92565b6001600160401b03166105a08480613ce2565b60200135856001600160a01b03167f19ac40c4084d9bfb5b43f819a94bf01c70789b0d579871f59e4f86def04d934460405160405180910390a450505050565b6106196040805160c081019091526060815260208101600081526000602082018190526060604083018190528083015260809091015290565b6001600160a01b038316600090815260086020908152604080832085845290915290819020815160c0810190925280548290829061065690613fc5565b80601f016020809104026020016040519081016040528092919081815260200182805461068290613fc5565b80156106cf5780601f106106a4576101008083540402835291602001916106cf565b820191906000526020600020905b8154815290600101906020018083116106b257829003601f168201915b5050509183525050600182015460209091019060ff1660028111156106f6576106f6613585565b600281111561070757610707613585565b81526001820154610100900460ff161515602080830191909152600283018054604080518285028101850182528281529401939260009084015b828210156107ed57838290600052602060002001805461076090613fc5565b80601f016020809104026020016040519081016040528092919081815260200182805461078c90613fc5565b80156107d95780601f106107ae576101008083540402835291602001916107d9565b820191906000526020600020905b8154815290600101906020018083116107bc57829003601f168201915b505050505081526020019060010190610741565b50505050815260200160038201805461080590613fc5565b80601f016020809104026020016040519081016040528092919081815260200182805461083190613fc5565b801561087e5780601f106108535761010080835404028352916020019161087e565b820191906000526020600020905b81548152906001019060200180831161086157829003601f168201915b5050505050815260200160048201548152505090505b92915050565b6108a2612f72565b6108ac6000612fcc565b565b600680546108bb90613fc5565b80601f01602080910402602001604051908101604052809291908181526020018280546108e790613fc5565b80156109345780601f1061090957610100808354040283529160200191610934565b820191906000526020600020905b81548152906001019060200180831161091757829003601f168201915b505050505081565b6109468280613d02565b9050600003610968576040516341cd6a4760e01b815260040160405180910390fd5b6000602083013515801561098857506109846040840184613d02565b1590505b6109d2576020830135158015906109ac57506109a76040840184613d02565b151590505b156109b9575060016109d2565b604051637d6ba8a560e01b815260040160405180910390fd5b8015610a5557600f546040805160808101909152604d8082526001600160a01b0390921691630c28ca83918591614ed960208301396040518363ffffffff1660e01b8152600401610a24929190613ff9565b60006040518083038186803b158015610a3c57600080fd5b505afa158015610a50573d6000803e3d6000fd5b505050505b60006001600160a01b038b1663d39b59c88b8b8b8b8b8b610a768c80613d02565b8d602001358e8060400190610a8b9190613d02565b6040518c63ffffffff1660e01b8152600401610ab19b9a999897969594939291906140f0565b6000604051808303816000875af1158015610ad0573d6000803e3d6000fd5b505050506040513d6000823e601f3d908101601f19168201604052610af8919081019061425a565b90506001600160a01b038b167f302d58680222aca6b36ce7b9a42191dce3989bd867cc20f4ec54f5e563010934828a8a8a8a610b348b80613d02565b8c60200135604051610b4d9897969594939291906142a2565b60405180910390a25050505050505050505050565b610b6a612f72565b600154600160a01b900460ff16610b9457604051631061b23960e11b815260040160405180910390fd5b60208101356002556040810135600355606081013560045560800135600555565b505050565b336000908152600860209081526040808320848452909152808220815160c08101909252805482908290610bed90613fc5565b80601f0160208091040260200160405190810160405280929190818152602001828054610c1990613fc5565b8015610c665780601f10610c3b57610100808354040283529160200191610c66565b820191906000526020600020905b815481529060010190602001808311610c4957829003601f168201915b5050509183525050600182015460209091019060ff166002811115610c8d57610c8d613585565b6002811115610c9e57610c9e613585565b81526001820154610100900460ff161515602080830191909152600283018054604080518285028101850182528281529401939260009084015b82821015610d84578382906000526020600020018054610cf790613fc5565b80601f0160208091040260200160405190810160405280929190818152602001828054610d2390613fc5565b8015610d705780601f10610d4557610100808354040283529160200191610d70565b820191906000526020600020905b815481529060010190602001808311610d5357829003601f168201915b505050505081526020019060010190610cd8565b505050508152602001600382018054610d9c90613fc5565b80601f0160208091040260200160405190810160405280929190818152602001828054610dc890613fc5565b8015610e155780601f10610dea57610100808354040283529160200191610e15565b820191906000526020600020905b815481529060010190602001808311610df857829003601f168201915b50505091835250506004919091015460209091015260a0810151909150610e4f57604051631109bfb360e31b815260040160405180910390fd5b608081015160a0820151604051635fe39e0d60e01b815233928392635fe39e0d92610e809288929091600401614308565b600060405180830381600087803b158015610e9a57600080fd5b505af1158015610eae573d6000803e3d6000fd5b50506040518592503391507fe893e4ba0e364cdc96364b1e1e0d53b0d91e5fd6aa0ee9d81a17ecd61178bf1790600090a3505050565b6001546000908190600160a01b900460ff16610f1357604051631061b23960e11b815260040160405180910390fd5b600f546040516387830fe360e01b815260048101869052602481018590526001600160a01b03909116906387830fe39060440160408051808303816000875af1158015610f64573d6000803e3d6000fd5b505050506040513d601f19601f82011682018060405250810190610f889190614331565b915091505b9250929050565b610f9c612f72565b6006610fa98284836143af565b506007805463ffffffff191663ffffffff9290921691909117905550565b610fd5826103a18380613ce2565b610ff5576040516001627109bd60e01b0319815260040160405180910390fd5b6001600160a01b0382166000908152600d60209081526040822090829061101e90850185613ce2565b60200135815260200190815260200160002060008360400160208101906110459190613e92565b6001600160401b0316815260208101919091526040016000205460ff16905080156110835760405163066c745760e01b815260040160405180910390fd5b61108c8261301c565b6110a9576040516312c9cc9f60e01b815260040160405180910390fd5b6110b66020830183613ce2565b602001356001600160a01b0384167fedbcd9eeb09d85c3ea1b5bf002c04478059cb261cab82c903885cefccae374bc6110f56060860160408701613e92565b6080860161110960e0880160c08901613e92565b6040516111189392919061446e565b60405180910390a3505050565b600860209081526000928352604080842090915290825290208054819061114b90613fc5565b80601f016020809104026020016040519081016040528092919081815260200182805461117790613fc5565b80156111c45780601f10611199576101008083540402835291602001916111c4565b820191906000526020600020905b8154815290600101906020018083116111a757829003601f168201915b505050506001830154600384018054939460ff80841695610100909404169350916111ee90613fc5565b80601f016020809104026020016040519081016040528092919081815260200182805461121a90613fc5565b80156112675780601f1061123c57610100808354040283529160200191611267565b820191906000526020600020905b81548152906001019060200180831161124a57829003601f168201915b5050505050908060040154905085565b336000908152600860209081526040808320878452909152808220815160c081019092528054829082906112aa90613fc5565b80601f01602080910402602001604051908101604052809291908181526020018280546112d690613fc5565b80156113235780601f106112f857610100808354040283529160200191611323565b820191906000526020600020905b81548152906001019060200180831161130657829003601f168201915b5050509183525050600182015460209091019060ff16600281111561134a5761134a613585565b600281111561135b5761135b613585565b81526001820154610100900460ff161515602080830191909152600283018054604080518285028101850182528281529401939260009084015b828210156114415783829060005260206000200180546113b490613fc5565b80601f01602080910402602001604051908101604052809291908181526020018280546113e090613fc5565b801561142d5780601f106114025761010080835404028352916020019161142d565b820191906000526020600020905b81548152906001019060200180831161141057829003601f168201915b505050505081526020019060010190611395565b50505050815260200160038201805461145990613fc5565b80601f016020809104026020016040519081016040528092919081815260200182805461148590613fc5565b80156114d25780601f106114a7576101008083540402835291602001916114d2565b820191906000526020600020905b8154815290600101906020018083116114b557829003601f168201915b50505091835250506004919091015460209091015260a081015190915061150c57604051631109bfb360e31b815260040160405180910390fd5b61154f338686868080601f0160208091040260200160405190810160405280939291908181526020018383808284376000920191909152508892506130a7915050565b5050505050565b611567836103a16020850185613ce2565b611587576040516001627109bd60e01b0319815260040160405180910390fd5b600f54604051630c28ca8360e01b81526001600160a01b0390911690630c28ca83906115b790849060040161449e565b60006040518083038186803b1580156115cf57600080fd5b505afa1580156115e3573d6000803e3d6000fd5b505050506001600160a01b0383166000908152600d60209081526040822090829061161090860186613ce2565b60200135815260200190815260200160002060008460400160208101906116379190613e92565b6001600160401b0316815260208101919091526040016000205460ff16905080156116755760405163066c745760e01b815260040160405180910390fd5b6001600160a01b0384166000908152600d60209081526040822060019290916116a090870187613ce2565b60200135815260200190815260200160002060008560400160208101906116c79190613e92565b6001600160401b0316815260208082019290925260409081016000908120805460ff1916941515949094179093556001600160a01b038716835260088252822090829061171690870187613ce2565b6020013581526020019081526020016000206040518060c001604052908160008201805461174390613fc5565b80601f016020809104026020016040519081016040528092919081815260200182805461176f90613fc5565b80156117bc5780601f10611791576101008083540402835291602001916117bc565b820191906000526020600020905b81548152906001019060200180831161179f57829003601f168201915b5050509183525050600182015460209091019060ff1660028111156117e3576117e3613585565b60028111156117f4576117f4613585565b81526001820154610100900460ff161515602080830191909152600283018054604080518285028101850182528281529401939260009084015b828210156118da57838290600052602060002001805461184d90613fc5565b80601f016020809104026020016040519081016040528092919081815260200182805461187990613fc5565b80156118c65780601f1061189b576101008083540402835291602001916118c6565b820191906000526020600020905b8154815290600101906020018083116118a957829003601f168201915b50505050508152602001906001019061182e565b5050505081526020016003820180546118f290613fc5565b80601f016020809104026020016040519081016040528092919081815260200182805461191e90613fc5565b801561196b5780601f106119405761010080835404028352916020019161196b565b820191906000526020600020905b81548152906001019060200180831161194e57829003601f168201915b505050918352505060049190910154602090910152905060028160200151600281111561199a5761199a613585565b03611a99576001600160a01b0385166000908152600a60209081526040822091906119c790870187613ce2565b60209081013582528101919091526040908101600020546001600160401b0316906119f89060608701908701613e92565b6001600160401b031614611a1f5760405163362a414d60e01b815260040160405180910390fd5b611a2f6060850160408601613e92565b611a3a906001614593565b6001600160a01b0386166000908152600a6020908152604082209190611a6290880188613ce2565b60200135815260200190815260200160002060006101000a8154816001600160401b0302191690836001600160401b031602179055505b611aa66020850185613ce2565b602001356001600160a01b0386167fde5b57e6566d68a30b0979431df3d5df6db3b9aa89f8820f595b9315bf86d067611ae56060880160408901613e92565b6040516001600160401b03909116815260200160405180910390a3611b098461301c565b15611b8e5784611b1c6020860186613ce2565b602001356001600160a01b0382167fedbcd9eeb09d85c3ea1b5bf002c04478059cb261cab82c903885cefccae374bc611b5b6060890160408a01613e92565b60808901611b6f60e08b0160c08c01613e92565b604051611b7e9392919061446e565b60405180910390a3505050505050565b6000611b998561469a565b90506000866001600160a01b0316634dcc0aa6836040518263ffffffff1660e01b8152600401611bc99190614788565b6000604051808303816000875af1158015611be8573d6000803e3d6000fd5b505050506040513d6000823e601f3d908101601f19168201604052611c10919081019061483a565b6001600160a01b0388166000908152600e6020908152604082209293509091908290611c3e908a018a613ce2565b6020013581526020019081526020016000206000886040016020810190611c659190613e92565b6001600160401b0316815260208101919091526040016000205460ff1690508015611ca357604051637aa549d360e01b815260040160405180910390fd5b6001600160a01b0388166000908152600e6020908152604082206001929091611cce908b018b613ce2565b6020013581526020019081526020016000206000896040016020810190611cf59190613e92565b6001600160401b03168152602080820192909252604001600020805460ff191692151592909217909155611d2b90880188613ce2565b602001356001600160a01b0389167fa32e6f42b1d63fb83ad73b009a6dbb9413d1da02e95b1bb08f081815eea8db20611d6a60608b0160408c01613e92565b85604051611d799291906148d0565b60405180910390a35050505050505050565b600154600160a01b900460ff16611db557604051631061b23960e11b815260040160405180910390fd5b60015460405163128cba2560e01b81526001600160a01b039091169063128cba2590611dea9060029086908690600401614907565b602060405180830381865afa158015611e07573d6000803e3d6000fd5b505050506040513d601f19601f82011682018060405250810190611e2b91906149a3565b611e48576040516318c1c54d60e01b815260040160405180910390fd5b5080356002556020810135600355604081013560045560600135600555565b600754600090611e7f9063ffffffff168284866149c0565b604051602001611e909291906149ea565b604051602081830303815290604052805190602001206006604051602001611eb891906149fa565b6040516020818303038152906040528051906020012014611edb57506000611f4d565b600754600090611ef490849063ffffffff1681876149c0565b8080601f01602080910402602001604051908101604052809392919081815260200183838082843760009201919091525092935050506001600160a01b0386169050611f3f826131cc565b6001600160a01b0316149150505b9392505050565b6000806000600160149054906101000a900460ff16611f8657604051631061b23960e11b815260040160405180910390fd5b600f5460405163089935e560e31b8152600481018690526001600160a01b03909116906344c9af2890602401606060405180830381865afa158015611fcf573d6000803e3d6000fd5b505050506040513d601f19601f82011682018060405250810190611ff39190614a70565b9250925092509193909250565b600f60009054906101000a90046001600160a01b03166001600160a01b0316630c28ca83826040518060400160405280601d81526020017f6368616e6e656c2f706174682f746f2f62652f61646465642f686572650000008152506040518060800160405280605e8152602001614e28605e91396040518463ffffffff1660e01b815260040161209293929190614aa9565b60006040518083038186803b1580156120aa57600080fd5b505afa1580156120be573d6000803e3d6000fd5b505060405163a6c50b4d60e01b81526001600160a01b038f16925063a6c50b4d91506120f4908e90889088908890600401614b25565b600060405180830381600087803b15801561210e57600080fd5b505af1158015612122573d6000803e3d6000fd5b505050506040518060c0016040528084848080601f01602080910402602001604051908101604052809392919081815260200183838082843760009201919091525050509082525060200189600281111561217f5761217f613585565b815288151560208201526040016121968b8d614b45565b815260200187878080601f016020809104026020016040519081016040528093929190818152602001838380828437600092018290525093855250505060209182018790526001600160a01b038f1681526008825260408082208f835290925220815181906122059082614bc8565b50602082015160018083018054909160ff199091169083600281111561222d5761222d613585565b021790555060408201516001820180549115156101000261ff00199092169190911790556060820151805161226c916002840191602090910190613379565b50608082015160038201906122819082614bc8565b5060a082015181600401559050506001600960008e6001600160a01b03166001600160a01b0316815260200190815260200160002060008d815260200190815260200160002060006101000a8154816001600160401b0302191690836001600160401b031602179055506001600a60008e6001600160a01b03166001600160a01b0316815260200190815260200160002060008d815260200190815260200160002060006101000a8154816001600160401b0302191690836001600160401b031602179055506001600b60008e6001600160a01b03166001600160a01b0316815260200190815260200160002060008d815260200190815260200160002060006101000a8154816001600160401b0302191690836001600160401b031602179055508b6001600160a01b03167fec10e9c95bcd0a3561931a33a25adba5f809e8d25279a05da83a095e19f02add8c6040516123de91815260200190565b60405180910390a2505050505050505050505050565b600f60009054906101000a90046001600160a01b03166001600160a01b0316630c28ca83826040518060400160405280601d81526020017f6368616e6e656c2f706174682f746f2f62652f61646465642f68657265000000815250604051806080016040528060538152602001614e86605391396040518463ffffffff1660e01b815260040161248693929190614aa9565b60006040518083038186803b15801561249e57600080fd5b505afa1580156124b2573d6000803e3d6000fd5b505050506001600160a01b0383166000908152600860209081526040808320858452909152808220815160c081019092528054829082906124f290613fc5565b80601f016020809104026020016040519081016040528092919081815260200182805461251e90613fc5565b801561256b5780601f106125405761010080835404028352916020019161256b565b820191906000526020600020905b81548152906001019060200180831161254e57829003601f168201915b5050509183525050600182015460209091019060ff16600281111561259257612592613585565b60028111156125a3576125a3613585565b81526001820154610100900460ff161515602080830191909152600283018054604080518285028101850182528281529401939260009084015b828210156126895783829060005260206000200180546125fc90613fc5565b80601f016020809104026020016040519081016040528092919081815260200182805461262890613fc5565b80156126755780601f1061264a57610100808354040283529160200191612675565b820191906000526020600020905b81548152906001019060200180831161265857829003601f168201915b5050505050815260200190600101906125dd565b5050505081526020016003820180546126a190613fc5565b80601f01602080910402602001604051908101604052809291908181526020018280546126cd90613fc5565b801561271a5780601f106126ef5761010080835404028352916020019161271a565b820191906000526020600020905b8154815290600101906020018083116126fd57829003601f168201915b50505091835250506004919091015460209091015260a081015190915061275457604051634d93b09d60e11b815260040160405180910390fd5b608081015160a0820151604051635fe39e0d60e01b815286926001600160a01b03841692635fe39e0d9261278e9289929091600401614308565b600060405180830381600087803b1580156127a857600080fd5b505af11580156127bc573d6000803e3d6000fd5b5050506001600160a01b0386166000908152600860209081526040808320888452909152812091506127ee82826133cf565b60018201805461ffff19169055612809600283016000613409565b6128176003830160006133cf565b6004820160009055505083856001600160a01b03167fe893e4ba0e364cdc96364b1e1e0d53b0d91e5fd6aa0ee9d81a17ecd61178bf1760405160405180910390a35050505050565b612867612f72565b6001600160a01b0381166128d15760405162461bcd60e51b815260206004820152602660248201527f4f776e61626c653a206e6577206f776e657220697320746865207a65726f206160448201526564647265737360d01b60648201526084015b60405180910390fd5b6128da81612fcc565b50565b6128eb846103a18580613ce2565b61290857604051630f49276d60e11b815260040160405180910390fd5b600f60009054906101000a90046001600160a01b03166001600160a01b0316630c28ca83826040518060400160405280600f81526020016e0c2c6d65ee0c2c6d6cae85ee0c2e8d608b1b8152506040518060600160405280602a8152602001614f26602a91396040518463ffffffff1660e01b815260040161298c93929190614c87565b60006040518083038186803b1580156129a457600080fd5b505afa1580156129b8573d6000803e3d6000fd5b505050506001600160a01b0384166000908152600c60205260408120816129df8680613ce2565b6020013581526020019081526020016000206000856040016020810190612a069190613e92565b6001600160401b0316815260208101919091526040016000205460ff16905080612a435760405163ca89746b60e01b815260040160405180910390fd5b6001600160a01b038516600090815260086020526040812081612a668780613ce2565b6020013581526020019081526020016000206040518060c0016040529081600082018054612a9390613fc5565b80601f0160208091040260200160405190810160405280929190818152602001828054612abf90613fc5565b8015612b0c5780601f10612ae157610100808354040283529160200191612b0c565b820191906000526020600020905b815481529060010190602001808311612aef57829003601f168201915b5050509183525050600182015460209091019060ff166002811115612b3357612b33613585565b6002811115612b4457612b44613585565b81526001820154610100900460ff161515602080830191909152600283018054604080518285028101850182528281529401939260009084015b82821015612c2a578382906000526020600020018054612b9d90613fc5565b80601f0160208091040260200160405190810160405280929190818152602001828054612bc990613fc5565b8015612c165780601f10612beb57610100808354040283529160200191612c16565b820191906000526020600020905b815481529060010190602001808311612bf957829003601f168201915b505050505081526020019060010190612b7e565b505050508152602001600382018054612c4290613fc5565b80601f0160208091040260200160405190810160405280929190818152602001828054612c6e90613fc5565b8015612cbb5780601f10612c9057610100808354040283529160200191612cbb565b820191906000526020600020905b815481529060010190602001808311612c9e57829003601f168201915b5050509183525050600491909101546020909101529050600281602001516002811115612cea57612cea613585565b03612ddf576001600160a01b0386166000908152600b6020526040812090612d128780613ce2565b60209081013582528101919091526040908101600020546001600160401b031690612d439060608801908801613e92565b6001600160401b031614612d6a5760405163362a414d60e01b815260040160405180910390fd5b612d7a6060860160408701613e92565b612d85906001614593565b6001600160a01b0387166000908152600b6020526040812090612da88880613ce2565b60200135815260200190815260200160002060006101000a8154816001600160401b0302191690836001600160401b031602179055505b604051637e1d42b560e01b81526001600160a01b03871690637e1d42b590612e0d9088908890600401614cf6565b600060405180830381600087803b158015612e2757600080fd5b505af1158015612e3b573d6000803e3d6000fd5b5050506001600160a01b0387166000908152600c602052604081209150612e628780613ce2565b6020013581526020019081526020016000206000866040016020810190612e899190613e92565b6001600160401b031681526020810191909152604001600020805460ff19169055612eb48580613ce2565b602001356001600160a01b0387167fe46f6591236abe528fe47a3b281fb002524dadd3e62b1f317ed285d07273c3b1612ef36060890160408a01613e92565b6040516001600160401b039091168152602001611b7e565b612f13612f72565b600154600160a01b900460ff1615612f3e5760405163fe5e8ac360e01b815260040160405180910390fd5b6001805460ff60a01b1916600160a01b17905560208101356002556040810135600355606081013560045560800135600555565b6000546001600160a01b031633146108ac5760405162461bcd60e51b815260206004820181905260248201527f4f776e61626c653a2063616c6c6572206973206e6f7420746865206f776e657260448201526064016128c8565b600080546001600160a01b038381166001600160a01b0319831681178455604051919092169283917f8be0079c531659141344cd1fd0a4f28419497f9722a3daafe3b4186f6b6457e09190a35050565b600061302e60e0830160c08401613e92565b6001600160401b03161580159061305d575061305060e0830160c08401613e92565b6001600160401b03164210155b80610894575061307360c0830160a08401613e92565b6001600160401b031615801590610894575061309560c0830160a08401613e92565b6001600160401b031643101592915050565b6001600160a01b03841660009081526009602090815260408083208684529091528120546001600160401b0316908190036130f557604051631e510bfb60e21b815260040160405180910390fd5b6001600160a01b0385166000908152600c6020908152604080832087845282528083206001600160401b03851684529091529020805460ff19166001908117909155613142908290614593565b6001600160a01b038616600081815260096020908152604080832089845290915290819020805467ffffffffffffffff19166001600160401b03949094169390931790925590518591907fb5bff96e18da044e4e34510d16df9053b9f1920f6a960732e5aaf22fe9b80136906131bd90879086908890614d4d565b60405180910390a35050505050565b600081516028146131f0576040516305229b2360e41b815260040160405180910390fd5b60408051601480825281830190925283916000919060208201818036833701905050905060005b601481101561336d5760008361322e836002614d80565b8151811061323e5761323e614d97565b016020015160f81c9050600084613256846002614d80565b613261906001614dad565b8151811061327157613271614d97565b016020015160f81c9050604160ff8316108015906132935750605a8260ff1611155b156132a6576132a3602083614dc0565b91505b60418160ff16101580156132be5750605a8160ff1611155b156132d1576132ce602082614dc0565b90505b600060618260ff1610156132e65760306132e9565b60575b6132f39083614dd9565b60618460ff161015613306576030613309565b60575b6133139085614dd9565b61331e906010614df2565b6133289190614dc0565b90508060f81b85858151811061334057613340614d97565b60200101906001600160f81b031916908160001a905350505050808061336590614e0e565b915050613217565b50601401519392505050565b8280548282559060005260206000209081019282156133bf579160200282015b828111156133bf57825182906133af9082614bc8565b5091602001919060010190613399565b506133cb929150613423565b5090565b5080546133db90613fc5565b6000825580601f106133eb575050565b601f0160209004906000526020600020908101906128da9190613440565b50805460008255906000526020600020908101906128da91905b808211156133cb57600061343782826133cf565b50600101613423565b5b808211156133cb5760008155600101613441565b6001600160a01b03811681146128da57600080fd5b600060e0828403121561347c57600080fd5b50919050565b60006060828403121561347c57600080fd5b6000806000606084860312156134a957600080fd5b83356134b481613455565b925060208401356001600160401b03808211156134d057600080fd5b6134dc8783880161346a565b935060408601359150808211156134f257600080fd5b506134ff86828701613482565b9150509250925092565b6000806040838503121561351c57600080fd5b823561352781613455565b946020939093013593505050565b60005b83811015613550578181015183820152602001613538565b50506000910152565b60008151808452613571816020860160208601613535565b601f01601f19169290920160200192915050565b634e487b7160e01b600052602160045260246000fd5b600381106135b957634e487b7160e01b600052602160045260246000fd5b9052565b60006020808352835160c0828501526135d960e0850182613559565b9050818501516135ec604086018261359b565b506040850151151560608501526060850151601f19808684030160808701528282518085528585019150858160051b860101868501945060005b828110156136525784878303018452613640828751613559565b95880195938801939150600101613626565b5060808a01519650838982030160a08a015261366e8188613559565b965050505050505060a084015160c08401528091505092915050565b602081526000611f4d6020830184613559565b80356136a881613455565b919050565b60008083601f8401126136bf57600080fd5b5081356001600160401b038111156136d657600080fd5b602083019150836020828501011115610f8d57600080fd5b8035600381106136a857600080fd5b80151581146128da57600080fd5b80356136a8816136fd565b60008083601f84011261372857600080fd5b5081356001600160401b0381111561373f57600080fd5b6020830191508360208260051b8501011115610f8d57600080fd5b600080600080600080600080600060e08a8c03121561377857600080fd5b6137818a61369d565b985060208a01356001600160401b038082111561379d57600080fd5b6137a98d838e016136ad565b909a5098508891506137bd60408d016136ee565b97506137cb60608d0161370b565b965060808c01359150808211156137e157600080fd5b6137ed8d838e01613716565b909650945060a08c013591508082111561380657600080fd5b6138128d838e01613482565b935060c08c013591508082111561382857600080fd5b506138358c828d01613482565b9150509295985092959850929598565b600060a0828403121561347c57600080fd5b60006020828403121561386957600080fd5b81356001600160401b0381111561387f57600080fd5b61388b84828501613845565b949350505050565b6000602082840312156138a557600080fd5b5035919050565b600080604083850312156138bf57600080fd5b50508035926020909101359150565b600080602083850312156138e157600080fd5b82356001600160401b038111156138f757600080fd5b613903858286016136ad565b90969095509350505050565b6000806040838503121561392257600080fd5b823561392d81613455565b915060208301356001600160401b0381111561394857600080fd5b6139548582860161346a565b9150509250929050565b60a08152600061397160a0830188613559565b61397e602084018861359b565b851515604084015282810360608401526139988186613559565b9150508260808301529695505050505050565b80356001600160401b03811681146136a857600080fd5b600080600080606085870312156139d857600080fd5b8435935060208501356001600160401b038111156139f557600080fd5b613a01878288016136ad565b9094509250613a149050604086016139ab565b905092959194509250565b600080828403610180811215613a3457600080fd5b6080811215613a4257600080fd5b839250610100607f1982011215613a5857600080fd5b506080830190509250929050565b600080600060408486031215613a7b57600080fd5b8335613a8681613455565b925060208401356001600160401b03811115613aa157600080fd5b613aad868287016136ad565b9497909650939450505050565b6000806000806000806000806000806000806101208d8f031215613add57600080fd5b613ae68d61369d565b9b5060208d01359a506001600160401b0360408e01351115613b0757600080fd5b613b178e60408f01358f01613716565b909a509850613b2860608e016136ee565b9750613b3660808e0161370b565b96506001600160401b0360a08e01351115613b5057600080fd5b613b608e60a08f01358f016136ad565b909650945060c08d013593506001600160401b0360e08e01351115613b8457600080fd5b613b948e60e08f01358f016136ad565b90935091506001600160401b036101008e01351115613bb257600080fd5b613bc38e6101008f01358f01613482565b90509295989b509295989b509295989b565b600080600060608486031215613bea57600080fd5b8335613bf581613455565b92506020840135915060408401356001600160401b03811115613c1757600080fd5b6134ff86828701613482565b600060208284031215613c3557600080fd5b8135611f4d81613455565b60008060008060808587031215613c5657600080fd5b8435613c6181613455565b935060208501356001600160401b0380821115613c7d57600080fd5b613c898883890161346a565b94506040870135915080821115613c9f57600080fd5b9086019060408289031215613cb357600080fd5b90925060608601359080821115613cc957600080fd5b50613cd687828801613482565b91505092959194509250565b60008235603e19833603018112613cf857600080fd5b9190910192915050565b6000808335601e19843603018112613d1957600080fd5b8301803591506001600160401b03821115613d3357600080fd5b602001915036819003821315610f8d57600080fd5b6001600160401b0380613d5a836139ab565b16835280613d6a602084016139ab565b166020840152505050565b6000808335601e19843603018112613d8c57600080fd5b83016020810192503590506001600160401b03811115613dab57600080fd5b803603821315610f8d57600080fd5b81835281816020850137506000828201602090810191909152601f909101601f19169091010190565b613ded8282613d48565b6000613dfc6040830183613d75565b60606040860152613e11606086018284613dba565b95945050505050565b606081526000613e2d6060830184613de3565b82810380602085015260138252720e0c2c6d6cae85ee4cac6cad2e0e85ee0c2e8d606b1b602083015260408101604085015250601560408201527411985a5b081d1bc81c1c9bdd99481d1a5b595bdd5d605a1b60608201526080810191505092915050565b600060208284031215613ea457600080fd5b611f4d826139ab565b60008235603e19833603018112613ec357600080fd5b90910192915050565b6000613ed88283613d75565b60408552613eea604086018284613dba565b915050602083013560208501528091505092915050565b6000613f0d8283613ead565b60e08452613f1e60e0850182613ecc565b9050613f2d6020840184613ead565b8482036020860152613f3f8282613ecc565b915050613f4e604084016139ab565b6001600160401b038082166040870152613f6b6060860186613d75565b92508684036060880152613f80848483613dba565b935050613f936080870160808701613d48565b80613fa060c087016139ab565b1660c087015250508091505092915050565b602081526000611f4d6020830184613f01565b600181811c90821680613fd957607f821691505b60208210810361347c57634e487b7160e01b600052602260045260246000fd5b60808152600061400c6080830185613de3565b828103806020850152601d82527f6368616e6e656c2f706174682f746f2f62652f61646465642f686572650000006020830152604081016040850152506140566040820185613559565b8381036060850152601b81527f4661696c20746f2070726f7665206368616e6e656c20737461746500000000006020820152905060408101613e11565b81835260006020808501808196508560051b810191508460005b878110156140e35782840389526140c48288613d75565b6140cf868284613dba565b9a87019a95505050908401906001016140ad565b5091979650505050505050565b60e08152600061410460e083018d8f613dba565b614111602084018d61359b565b8a15156040840152828103606084015261412c818a8c614093565b9050828103608084015261414181888a613dba565b90508560a084015282810360c084015261415c818587613dba565b9e9d5050505050505050505050505050565b634e487b7160e01b600052604160045260246000fd5b604080519081016001600160401b03811182821017156141a6576141a661416e565b60405290565b60405160c081016001600160401b03811182821017156141a6576141a661416e565b604051601f8201601f191681016001600160401b03811182821017156141f6576141f661416e565b604052919050565b60006001600160401b038211156142175761421761416e565b50601f01601f191660200190565b6000614238614233846141fe565b6141ce565b905082815283838301111561424c57600080fd5b611f4d836020830184613535565b60006020828403121561426c57600080fd5b81516001600160401b0381111561428257600080fd5b8201601f8101841361429357600080fd5b61388b84825160208401614225565b60c0815260006142b560c083018b613559565b6142c2602084018b61359b565b881515604084015282810360608401526142dd81888a614093565b905082810360808401526142f2818688613dba565b9150508260a08301529998505050505050505050565b8381526060602082015260006143216060830185613559565b9050826040830152949350505050565b6000806040838503121561434457600080fd5b825191506020830151614356816136fd565b809150509250929050565b601f821115610bb557600081815260208120601f850160051c810160208610156143885750805b601f850160051c820191505b818110156143a757828155600101614394565b505050505050565b6001600160401b038311156143c6576143c661416e565b6143da836143d48354613fc5565b83614361565b6000601f84116001811461440e57600085156143f65750838201355b600019600387901b1c1916600186901b17835561154f565b600083815260209020601f19861690835b8281101561443f578685013582556020948501946001909201910161441f565b508682101561445c5760001960f88860031b161c19848701351681555b505060018560011b0183555050505050565b6001600160401b038481168252608082019061448d6020840186613d48565b808416606084015250949350505050565b6080815260006144b16080830184613de3565b82810380602085015260168252750e0c2c6d6cae85ec6dedadad2e8dacadce85ee0c2e8d60531b6020830152604081016040850152603860408301527f6578706563746564207669727475616c207061636b657420636f6d6d69746d6560608301527f6e742068617368206f6e20506f6c796d657220636861696e0000000000000000608083015260a08101606085015250601f60a08201527f4661696c20746f2070726f7665207061636b657420636f6d6d69746d656e740060c082015260e0810191505092915050565b634e487b7160e01b600052601160045260246000fd5b6001600160401b038181168382160190808211156145b3576145b361457d565b5092915050565b600082601f8301126145cb57600080fd5b81356145d9614233826141fe565b8181528460208386010111156145ee57600080fd5b816020850160208301376000918101602001919091529392505050565b60006040828403121561461d57600080fd5b614625614184565b905081356001600160401b0381111561463d57600080fd5b614649848285016145ba565b8252506020820135602082015292915050565b60006040828403121561466e57600080fd5b614676614184565b9050614681826139ab565b815261468f602083016139ab565b602082015292915050565b600060e082360312156146ac57600080fd5b6146b46141ac565b82356001600160401b03808211156146cb57600080fd5b6146d73683870161460b565b835260208501359150808211156146ed57600080fd5b6146f93683870161460b565b602084015261470a604086016139ab565b6040840152606085013591508082111561472357600080fd5b50614730368286016145ba565b606083015250614743366080850161465c565b608082015261475460c084016139ab565b60a082015292915050565b60008151604084526147746040850182613559565b602093840151949093019390935250919050565b602081526000825160e060208401526147a561010084018261475f565b90506020840151601f19808584030160408601526147c3838361475f565b9250604086015191506001600160401b03808316606087015260608701519250818685030160808701526147f78484613559565b9350608087015192508083511660a08701528060208401511660c087015250505060a084015161483260e08501826001600160401b03169052565b509392505050565b60006020828403121561484c57600080fd5b81516001600160401b038082111561486357600080fd5b908301906040828603121561487757600080fd5b61487f614184565b825161488a816136fd565b815260208301518281111561489e57600080fd5b80840193505085601f8401126148b357600080fd5b6148c286845160208601614225565b602082015295945050505050565b6001600160401b0383168152604060208201528151151560408201526000602083015160406060840152613e116080840182613559565b600061020082019050845482526001808601546020840152600280870154604081818701526003890154606087015287356080870152602088013560a08701528088013560c0870152606088013560e087015280876101008801376101408601915080870160005b8481101561498a57828285379282019290820190850161496f565b50508060c088016101c088013750505050949350505050565b6000602082840312156149b557600080fd5b8151611f4d816136fd565b600080858511156149d057600080fd5b838611156149dd57600080fd5b5050820193919092039150565b8183823760009101908152919050565b6000808354614a0881613fc5565b60018281168015614a205760018114614a3557614a64565b60ff1984168752821515830287019450614a64565b8760005260208060002060005b85811015614a5b5781548a820152908401908201614a42565b50505082870194505b50929695505050505050565b600080600060608486031215614a8557600080fd5b83519250602084015191506040840151614a9e816136fd565b809150509250925092565b608081526000614abc6080830186613de3565b8281036020840152614ace8186613559565b90508281036040840152614ae28185613559565b8381036060850152601b81527f4661696c20746f2070726f7665206368616e6e656c207374617465000000000060208201529050604081015b9695505050505050565b848152836020820152606060408201526000614b1b606083018486613dba565b60006001600160401b0380841115614b5f57614b5f61416e565b8360051b6020614b708183016141ce565b868152918501918181019036841115614b8857600080fd5b865b84811015614bbc57803586811115614ba25760008081fd5b614bae36828b016145ba565b845250918301918301614b8a565b50979650505050505050565b81516001600160401b03811115614be157614be161416e565b614bf581614bef8454613fc5565b84614361565b602080601f831160018114614c2a5760008415614c125750858301515b600019600386901b1c1916600185901b1785556143a7565b600085815260208120601f198616915b82811015614c5957888601518255948401946001909101908401614c3a565b5085821015614c775787850151600019600388901b60f8161c191681555b5050505050600190811b01905550565b608081526000614c9a6080830186613de3565b8281036020840152614cac8186613559565b90508281036040840152614cc08185613559565b838103606090940193909352505060118152704661696c20746f2070726f76652061636b60781b60208201526040019392505050565b604081526000614d096040830185613f01565b82810360208401528335614d1c816136fd565b15158152614d2d6020850185613d75565b60406020840152614d42604084018284613dba565b979650505050505050565b606081526000614d606060830186613559565b6001600160401b0394851660208401529290931660409091015292915050565b80820281158282048414176108945761089461457d565b634e487b7160e01b600052603260045260246000fd5b808201808211156108945761089461457d565b60ff81811683821601908111156108945761089461457d565b60ff82811682821603908111156108945761089461457d565b60ff81811683821602908116908181146145b3576145b361457d565b600060018201614e2057614e2061457d565b506001019056fe6578706563746564206368616e6e656c20627974657320636f6e73747275637465642066726f6d20706172616d732e204368616e6e656c2e5374617465203d207b41636b5f50656e64696e672c20436f6e6669726d5f50656e64696e677d6578706563746564206368616e6e656c20627974657320636f6e73747275637465642066726f6d20706172616d732e204368616e6e656c2e5374617465203d207b436c6f736564285f50656e64696e673f297d6578706563746564206368616e6e656c20627974657320636f6e73747275637465642066726f6d20706172616d732e204368616e6e656c2e5374617465203d207b5472795f50656e64696e677d65787065637465642061636b20726563656970742068617368206f6e20506f6c796d657220636861696ea2646970667358221220f468df68053a997fdcb0ac43db264ec43675632053ddc4b8b7fdd1d1b648cc7164736f6c63430008140033",
    "linkReferences": {}
  },
  "methodIdentifiers": {
    "acknowledgement(address,((string,bytes32),(string,bytes32),uint64,bytes,(uint64,uint64),uint64),(bool,bytes),((uint64,uint64),bytes))": "f4eac785",
    "closeIbcChannel(bytes32)": "8b24b4cb",
    "connectIbcChannel(address,bytes32,string[],uint8,bool,string,bytes32,string,((uint64,uint64),bytes))": "ecb03929",
    "createClient((bytes,(uint256,uint256,uint256,uint256)))": "f4ecbb15",
    "getChannel(address,bytes32)": "42852d24",
    "getOptimisticConsensusState(uint256)": "eb86ffdb",
    "latestConsensusState()": "c2a2514d",
    "onCloseIbcChannel(address,bytes32,((uint64,uint64),bytes))": "ecbb6928",
    "openIbcChannel(address,string,uint8,bool,string[],(string,bytes32,string),((uint64,uint64),bytes))": "7e9077b0",
    "owner()": "8da5cb5b",
    "portChannelMap(address,bytes32)": "b2b1bf03",
    "portIdAddressMatch(address,string)": "e36e013f",
    "portPrefix()": "7774a6d3",
    "recvPacket(address,((string,bytes32),(string,bytes32),uint64,bytes,(uint64,uint64),uint64),((uint64,uint64),bytes))": "da4b5a8d",
    "renounceOwnership()": "715018a6",
    "sendPacket(bytes32,bytes,uint64)": "c3e1155c",
    "setPortPrefix(string)": "9f59ae71",
    "timeout(address,((string,bytes32),(string,bytes32),uint64,bytes,(uint64,uint64),uint64),((uint64,uint64),bytes))": "0080d0b1",
    "transferOwnership(address)": "f2fde38b",
    "updateClientWithConsensusState((uint256,uint256,uint256,uint256),(uint256[2],uint256[2][2],uint256[2]))": "dece4d01",
    "updateClientWithOptimisticConsensusState(uint256,uint256)": "9eb49818",
    "upgradeClient((bytes,(uint256,uint256,uint256,uint256)))": "80840e6b",
    "writeTimeoutPacket(address,((string,bytes32),(string,bytes32),uint64,bytes,(uint64,uint64),uint64))": "ac9c50b6"
  },
  "id": 1
}