{
  "abi": [
    {
      "inputs": [
        {
          "internalType": "contract ZKMintVerifier",
          "name": "_verifier",
          "type": "address"
        },
        {
          "internalType": "contract Escrow",
          "name": "_escrow",
          "type": "address"
        },
        {
          "internalType": "string",
          "name": "initPortPrefix",
          "type": "string"
        },
        {
          "internalType": "contract ConsensusStateManager",
          "name": "_consensusStateManager",
          "type": "address"
        }
      ],
      "stateMutability": "nonpayable",
      "type": "constructor"
    },
    {
      "inputs": [],
      "name": "ackPacketCommitmentAlreadyExists",
      "type": "error"
    },
    {
      "inputs": [],
      "name": "channelNotOwnedByPortAddress",
      "type": "error"
    },
    {
      "inputs": [],
      "name": "channelNotOwnedBySender",
      "type": "error"
    },
    {
      "inputs": [],
      "name": "clientAlreadyCreated",
      "type": "error"
    },
    {
      "inputs": [],
      "name": "clientNotCreated",
      "type": "error"
    },
    {
      "inputs": [],
      "name": "consensusStateVerificationFailed",
      "type": "error"
    },
    {
      "inputs": [],
      "name": "escrowPacketFee",
      "type": "error"
    },
    {
      "inputs": [
        {
          "internalType": "string",
          "name": "channelType",
          "type": "string"
        }
      ],
      "name": "invalidChannelType",
      "type": "error"
    },
    {
      "inputs": [],
      "name": "invalidCounterParty",
      "type": "error"
    },
    {
      "inputs": [],
      "name": "invalidCounterPartyPortId",
      "type": "error"
    },
    {
      "inputs": [],
      "name": "invalidHexStringLength",
      "type": "error"
    },
    {
      "inputs": [],
      "name": "invalidPacketSequence",
      "type": "error"
    },
    {
      "inputs": [],
      "name": "invalidRelayerAddress",
      "type": "error"
    },
    {
      "inputs": [],
      "name": "packetCommitmentNotFound",
      "type": "error"
    },
    {
      "inputs": [],
      "name": "packetNotTimedOut",
      "type": "error"
    },
    {
      "inputs": [],
      "name": "packetReceiptAlreadyExists",
      "type": "error"
    },
    {
      "inputs": [],
      "name": "receiverNotIndtendedPacketDestination",
      "type": "error"
    },
    {
      "inputs": [],
      "name": "receiverNotOriginPacketSender",
      "type": "error"
    },
    {
      "inputs": [],
      "name": "unexpectedPacketSequence",
      "type": "error"
    },
    {
      "anonymous": false,
      "inputs": [
        {
          "indexed": true,
          "internalType": "address",
          "name": "sourcePortAddress",
          "type": "address"
        },
        {
          "indexed": true,
          "internalType": "bytes32",
          "name": "sourceChannelId",
          "type": "bytes32"
        },
        {
          "indexed": false,
          "internalType": "uint64",
          "name": "sequence",
          "type": "uint64"
        }
      ],
      "name": "Acknowledgement",
      "type": "event"
    },
    {
      "anonymous": false,
      "inputs": [
        {
          "indexed": true,
          "internalType": "address",
          "name": "portAddress",
          "type": "address"
        },
        {
          "indexed": true,
          "internalType": "bytes32",
          "name": "channelId",
          "type": "bytes32"
        }
      ],
      "name": "CloseIbcChannel",
      "type": "event"
    },
    {
      "anonymous": false,
      "inputs": [
        {
          "indexed": true,
          "internalType": "address",
          "name": "portAddress",
          "type": "address"
        },
        {
          "indexed": false,
          "internalType": "bytes32",
          "name": "channelId",
          "type": "bytes32"
        }
      ],
      "name": "ConnectIbcChannel",
      "type": "event"
    },
    {
      "anonymous": false,
      "inputs": [
        {
          "indexed": true,
          "internalType": "address",
          "name": "portAddress",
          "type": "address"
        },
        {
          "indexed": false,
          "internalType": "string",
          "name": "version",
          "type": "string"
        },
        {
          "indexed": false,
          "internalType": "enum ChannelOrder",
          "name": "ordering",
          "type": "uint8"
        },
        {
          "indexed": false,
          "internalType": "bool",
          "name": "feeEnabled",
          "type": "bool"
        },
        {
          "indexed": false,
          "internalType": "string[]",
          "name": "connectionHops",
          "type": "string[]"
        },
        {
          "indexed": false,
          "internalType": "string",
          "name": "counterpartyPortId",
          "type": "string"
        },
        {
          "indexed": false,
          "internalType": "bytes32",
          "name": "counterpartyChannelId",
          "type": "bytes32"
        }
      ],
      "name": "OpenIbcChannel",
      "type": "event"
    },
    {
      "anonymous": false,
      "inputs": [
        {
          "indexed": true,
          "internalType": "address",
          "name": "previousOwner",
          "type": "address"
        },
        {
          "indexed": true,
          "internalType": "address",
          "name": "newOwner",
          "type": "address"
        }
      ],
      "name": "OwnershipTransferred",
      "type": "event"
    },
    {
      "anonymous": false,
      "inputs": [
        {
          "indexed": true,
          "internalType": "address",
          "name": "destPortAddress",
          "type": "address"
        },
        {
          "indexed": true,
          "internalType": "bytes32",
          "name": "destChannelId",
          "type": "bytes32"
        },
        {
          "indexed": false,
          "internalType": "uint64",
          "name": "sequence",
          "type": "uint64"
        }
      ],
      "name": "RecvPacket",
      "type": "event"
    },
    {
      "anonymous": false,
      "inputs": [
        {
          "indexed": true,
          "internalType": "address",
          "name": "sourcePortAddress",
          "type": "address"
        },
        {
          "indexed": true,
          "internalType": "bytes32",
          "name": "sourceChannelId",
          "type": "bytes32"
        },
        {
          "indexed": false,
          "internalType": "bytes",
          "name": "packet",
          "type": "bytes"
        },
        {
          "indexed": false,
          "internalType": "uint64",
          "name": "sequence",
          "type": "uint64"
        },
        {
          "indexed": false,
          "internalType": "uint64",
          "name": "timeoutTimestamp",
          "type": "uint64"
        },
        {
          "components": [
            {
              "internalType": "uint256",
              "name": "recvFee",
              "type": "uint256"
            },
            {
              "internalType": "uint256",
              "name": "ackFee",
              "type": "uint256"
            },
            {
              "internalType": "uint256",
              "name": "timeoutFee",
              "type": "uint256"
            }
          ],
          "indexed": false,
          "internalType": "struct PacketFee",
          "name": "fee",
          "type": "tuple"
        }
      ],
      "name": "SendPacket",
      "type": "event"
    },
    {
      "anonymous": false,
      "inputs": [
        {
          "indexed": true,
          "internalType": "address",
          "name": "sourcePortAddress",
          "type": "address"
        },
        {
          "indexed": true,
          "internalType": "bytes32",
          "name": "sourceChannelId",
          "type": "bytes32"
        },
        {
          "indexed": true,
          "internalType": "uint64",
          "name": "sequence",
          "type": "uint64"
        }
      ],
      "name": "Timeout",
      "type": "event"
    },
    {
      "anonymous": false,
      "inputs": [
        {
          "indexed": true,
          "internalType": "address",
          "name": "writerPortAddress",
          "type": "address"
        },
        {
          "indexed": true,
          "internalType": "bytes32",
          "name": "writerChannelId",
          "type": "bytes32"
        },
        {
          "indexed": false,
          "internalType": "uint64",
          "name": "sequence",
          "type": "uint64"
        },
        {
          "components": [
            {
              "internalType": "bool",
              "name": "success",
              "type": "bool"
            },
            {
              "internalType": "bytes",
              "name": "data",
              "type": "bytes"
            }
          ],
          "indexed": false,
          "internalType": "struct AckPacket",
          "name": "ackPacket",
          "type": "tuple"
        }
      ],
      "name": "WriteAckPacket",
      "type": "event"
    },
    {
      "anonymous": false,
      "inputs": [
        {
          "indexed": true,
          "internalType": "address",
          "name": "writerPortAddress",
          "type": "address"
        },
        {
          "indexed": true,
          "internalType": "bytes32",
          "name": "writerChannelId",
          "type": "bytes32"
        },
        {
          "indexed": false,
          "internalType": "uint64",
          "name": "sequence",
          "type": "uint64"
        },
        {
          "components": [
            {
              "internalType": "uint64",
              "name": "revision_number",
              "type": "uint64"
            },
            {
              "internalType": "uint64",
              "name": "revision_height",
              "type": "uint64"
            }
          ],
          "indexed": false,
          "internalType": "struct Height",
          "name": "timeoutHeight",
          "type": "tuple"
        },
        {
          "indexed": false,
          "internalType": "uint64",
          "name": "timeoutTimestamp",
          "type": "uint64"
        }
      ],
      "name": "WriteTimeoutPacket",
      "type": "event"
    },
    {
      "inputs": [
        {
          "internalType": "contract IbcReceiver",
          "name": "receiver",
          "type": "address"
        },
        {
          "components": [
            {
              "components": [
                {
                  "internalType": "string",
                  "name": "portId",
                  "type": "string"
                },
                {
                  "internalType": "bytes32",
                  "name": "channelId",
                  "type": "bytes32"
                }
              ],
              "internalType": "struct IbcEndpoint",
              "name": "src",
              "type": "tuple"
            },
            {
              "components": [
                {
                  "internalType": "string",
                  "name": "portId",
                  "type": "string"
                },
                {
                  "internalType": "bytes32",
                  "name": "channelId",
                  "type": "bytes32"
                }
              ],
              "internalType": "struct IbcEndpoint",
              "name": "dest",
              "type": "tuple"
            },
            {
              "internalType": "uint64",
              "name": "sequence",
              "type": "uint64"
            },
            {
              "internalType": "bytes",
              "name": "data",
              "type": "bytes"
            },
            {
              "components": [
                {
                  "internalType": "uint64",
                  "name": "revision_number",
                  "type": "uint64"
                },
                {
                  "internalType": "uint64",
                  "name": "revision_height",
                  "type": "uint64"
                }
              ],
              "internalType": "struct Height",
              "name": "timeoutHeight",
              "type": "tuple"
            },
            {
              "internalType": "uint64",
              "name": "timeoutTimestamp",
              "type": "uint64"
            }
          ],
          "internalType": "struct IbcPacket",
          "name": "packet",
          "type": "tuple"
        },
        {
          "components": [
            {
              "internalType": "bool",
              "name": "success",
              "type": "bool"
            },
            {
              "internalType": "bytes",
              "name": "data",
              "type": "bytes"
            }
          ],
          "internalType": "struct AckPacket",
          "name": "ackPacket",
          "type": "tuple"
        },
        {
          "components": [
            {
              "components": [
                {
                  "internalType": "uint64",
                  "name": "revision_number",
                  "type": "uint64"
                },
                {
                  "internalType": "uint64",
                  "name": "revision_height",
                  "type": "uint64"
                }
              ],
              "internalType": "struct Height",
              "name": "proofHeight",
              "type": "tuple"
            },
            {
              "internalType": "bytes",
              "name": "proof",
              "type": "bytes"
            }
          ],
          "internalType": "struct Proof",
          "name": "proof",
          "type": "tuple"
        }
      ],
      "name": "acknowledgement",
      "outputs": [],
      "stateMutability": "nonpayable",
      "type": "function"
    },
    {
      "inputs": [
        {
          "internalType": "bytes32",
          "name": "channelId",
          "type": "bytes32"
        }
      ],
      "name": "closeIbcChannel",
      "outputs": [],
      "stateMutability": "nonpayable",
      "type": "function"
    },
    {
      "inputs": [
        {
          "internalType": "contract IbcReceiver",
          "name": "portAddress",
          "type": "address"
        },
        {
          "internalType": "bytes32",
          "name": "channelId",
          "type": "bytes32"
        },
        {
          "internalType": "string[]",
          "name": "connectionHops",
          "type": "string[]"
        },
        {
          "internalType": "enum ChannelOrder",
          "name": "ordering",
          "type": "uint8"
        },
        {
          "internalType": "bool",
          "name": "feeEnabled",
          "type": "bool"
        },
        {
          "internalType": "string",
          "name": "counterpartyPortId",
          "type": "string"
        },
        {
          "internalType": "bytes32",
          "name": "counterpartyChannelId",
          "type": "bytes32"
        },
        {
          "internalType": "string",
          "name": "counterpartyVersion",
          "type": "string"
        },
        {
          "components": [
            {
              "components": [
                {
                  "internalType": "uint64",
                  "name": "revision_number",
                  "type": "uint64"
                },
                {
                  "internalType": "uint64",
                  "name": "revision_height",
                  "type": "uint64"
                }
              ],
              "internalType": "struct Height",
              "name": "proofHeight",
              "type": "tuple"
            },
            {
              "internalType": "bytes",
              "name": "proof",
              "type": "bytes"
            }
          ],
          "internalType": "struct Proof",
          "name": "proof",
          "type": "tuple"
        }
      ],
      "name": "connectIbcChannel",
      "outputs": [],
      "stateMutability": "nonpayable",
      "type": "function"
    },
    {
      "inputs": [
        {
          "components": [
            {
              "internalType": "bytes",
              "name": "clientState",
              "type": "bytes"
            },
            {
              "components": [
                {
                  "internalType": "uint256",
                  "name": "app_hash",
                  "type": "uint256"
                },
                {
                  "internalType": "uint256",
                  "name": "valset_hash",
                  "type": "uint256"
                },
                {
                  "internalType": "uint256",
                  "name": "time",
                  "type": "uint256"
                },
                {
                  "internalType": "uint256",
                  "name": "height",
                  "type": "uint256"
                }
              ],
              "internalType": "struct ConsensusState",
              "name": "consensusState",
              "type": "tuple"
            }
          ],
          "internalType": "struct InitClientMsg",
          "name": "initClientMsg",
          "type": "tuple"
        }
      ],
      "name": "createClient",
      "outputs": [],
      "stateMutability": "nonpayable",
      "type": "function"
    },
    {
      "inputs": [
        {
          "internalType": "address",
          "name": "portAddress",
          "type": "address"
        },
        {
          "internalType": "bytes32",
          "name": "channelId",
          "type": "bytes32"
        }
      ],
      "name": "getChannel",
      "outputs": [
        {
          "components": [
            {
              "internalType": "string",
              "name": "version",
              "type": "string"
            },
            {
              "internalType": "enum ChannelOrder",
              "name": "ordering",
              "type": "uint8"
            },
            {
              "internalType": "bool",
              "name": "feeEnabled",
              "type": "bool"
            },
            {
              "internalType": "string[]",
              "name": "connectionHops",
              "type": "string[]"
            },
            {
              "internalType": "string",
              "name": "counterpartyPortId",
              "type": "string"
            },
            {
              "internalType": "bytes32",
              "name": "counterpartyChannelId",
              "type": "bytes32"
            }
          ],
          "internalType": "struct Channel",
          "name": "",
          "type": "tuple"
        }
      ],
      "stateMutability": "view",
      "type": "function"
    },
    {
      "inputs": [
        {
          "internalType": "uint256",
          "name": "height",
          "type": "uint256"
        }
      ],
      "name": "getOptimisticConsensusState",
      "outputs": [
        {
          "internalType": "uint256",
          "name": "appHash",
          "type": "uint256"
        },
        {
          "internalType": "uint256",
          "name": "fraudProofEndTime",
          "type": "uint256"
        },
        {
          "internalType": "bool",
          "name": "ended",
          "type": "bool"
        }
      ],
      "stateMutability": "view",
      "type": "function"
    },
    {
      "inputs": [
        {
          "internalType": "address",
          "name": "packetSender",
          "type": "address"
        },
        {
          "internalType": "bytes32",
          "name": "channelId",
          "type": "bytes32"
        },
        {
          "internalType": "uint64",
          "name": "sequence",
          "type": "uint64"
        }
      ],
      "name": "getTotalPacketFees",
      "outputs": [
        {
          "components": [
            {
              "internalType": "uint256",
              "name": "recvFee",
              "type": "uint256"
            },
            {
              "internalType": "uint256",
              "name": "ackFee",
              "type": "uint256"
            },
            {
              "internalType": "uint256",
              "name": "timeoutFee",
              "type": "uint256"
            }
          ],
          "internalType": "struct PacketFee",
          "name": "",
          "type": "tuple"
        }
      ],
      "stateMutability": "view",
      "type": "function"
    },
    {
      "inputs": [
        {
          "internalType": "contract IbcReceiver",
          "name": "receiver",
          "type": "address"
        },
        {
          "components": [
            {
              "components": [
                {
                  "internalType": "string",
                  "name": "portId",
                  "type": "string"
                },
                {
                  "internalType": "bytes32",
                  "name": "channelId",
                  "type": "bytes32"
                }
              ],
              "internalType": "struct IbcEndpoint",
              "name": "src",
              "type": "tuple"
            },
            {
              "components": [
                {
                  "internalType": "string",
                  "name": "portId",
                  "type": "string"
                },
                {
                  "internalType": "bytes32",
                  "name": "channelId",
                  "type": "bytes32"
                }
              ],
              "internalType": "struct IbcEndpoint",
              "name": "dest",
              "type": "tuple"
            },
            {
              "internalType": "uint64",
              "name": "sequence",
              "type": "uint64"
            },
            {
              "internalType": "bytes",
              "name": "data",
              "type": "bytes"
            },
            {
              "components": [
                {
                  "internalType": "uint64",
                  "name": "revision_number",
                  "type": "uint64"
                },
                {
                  "internalType": "uint64",
                  "name": "revision_height",
                  "type": "uint64"
                }
              ],
              "internalType": "struct Height",
              "name": "timeoutHeight",
              "type": "tuple"
            },
            {
              "internalType": "uint64",
              "name": "timeoutTimestamp",
              "type": "uint64"
            }
          ],
          "internalType": "struct IbcPacket",
          "name": "packet",
          "type": "tuple"
        },
        {
          "components": [
            {
              "internalType": "bool",
              "name": "success",
              "type": "bool"
            },
            {
              "internalType": "bytes",
              "name": "relayer",
              "type": "bytes"
            },
            {
              "internalType": "bytes",
              "name": "data",
              "type": "bytes"
            }
          ],
          "internalType": "struct IncentivizedAckPacket",
          "name": "incentivizedAck",
          "type": "tuple"
        },
        {
          "components": [
            {
              "components": [
                {
                  "internalType": "uint64",
                  "name": "revision_number",
                  "type": "uint64"
                },
                {
                  "internalType": "uint64",
                  "name": "revision_height",
                  "type": "uint64"
                }
              ],
              "internalType": "struct Height",
              "name": "proofHeight",
              "type": "tuple"
            },
            {
              "internalType": "bytes",
              "name": "proof",
              "type": "bytes"
            }
          ],
          "internalType": "struct Proof",
          "name": "proof",
          "type": "tuple"
        }
      ],
      "name": "incentivizedAcknowledgement",
      "outputs": [],
      "stateMutability": "nonpayable",
      "type": "function"
    },
    {
      "inputs": [],
      "name": "latestConsensusState",
      "outputs": [
        {
          "internalType": "uint256",
          "name": "app_hash",
          "type": "uint256"
        },
        {
          "internalType": "uint256",
          "name": "valset_hash",
          "type": "uint256"
        },
        {
          "internalType": "uint256",
          "name": "time",
          "type": "uint256"
        },
        {
          "internalType": "uint256",
          "name": "height",
          "type": "uint256"
        }
      ],
      "stateMutability": "view",
      "type": "function"
    },
    {
      "inputs": [
        {
          "internalType": "address",
          "name": "portAddress",
          "type": "address"
        },
        {
          "internalType": "bytes32",
          "name": "channelId",
          "type": "bytes32"
        },
        {
          "components": [
            {
              "components": [
                {
                  "internalType": "uint64",
                  "name": "revision_number",
                  "type": "uint64"
                },
                {
                  "internalType": "uint64",
                  "name": "revision_height",
                  "type": "uint64"
                }
              ],
              "internalType": "struct Height",
              "name": "proofHeight",
              "type": "tuple"
            },
            {
              "internalType": "bytes",
              "name": "proof",
              "type": "bytes"
            }
          ],
          "internalType": "struct Proof",
          "name": "proof",
          "type": "tuple"
        }
      ],
      "name": "onCloseIbcChannel",
      "outputs": [],
      "stateMutability": "nonpayable",
      "type": "function"
    },
    {
      "inputs": [
        {
          "internalType": "contract IbcReceiver",
          "name": "portAddress",
          "type": "address"
        },
        {
          "internalType": "string",
          "name": "version",
          "type": "string"
        },
        {
          "internalType": "enum ChannelOrder",
          "name": "ordering",
          "type": "uint8"
        },
        {
          "internalType": "bool",
          "name": "feeEnabled",
          "type": "bool"
        },
        {
          "internalType": "string[]",
          "name": "connectionHops",
          "type": "string[]"
        },
        {
          "components": [
            {
              "internalType": "string",
              "name": "portId",
              "type": "string"
            },
            {
              "internalType": "bytes32",
              "name": "channelId",
              "type": "bytes32"
            },
            {
              "internalType": "string",
              "name": "version",
              "type": "string"
            }
          ],
          "internalType": "struct CounterParty",
          "name": "counterparty",
          "type": "tuple"
        },
        {
          "components": [
            {
              "components": [
                {
                  "internalType": "uint64",
                  "name": "revision_number",
                  "type": "uint64"
                },
                {
                  "internalType": "uint64",
                  "name": "revision_height",
                  "type": "uint64"
                }
              ],
              "internalType": "struct Height",
              "name": "proofHeight",
              "type": "tuple"
            },
            {
              "internalType": "bytes",
              "name": "proof",
              "type": "bytes"
            }
          ],
          "internalType": "struct Proof",
          "name": "proof",
          "type": "tuple"
        }
      ],
      "name": "openIbcChannel",
      "outputs": [],
      "stateMutability": "nonpayable",
      "type": "function"
    },
    {
      "inputs": [],
      "name": "owner",
      "outputs": [
        {
          "internalType": "address",
          "name": "",
          "type": "address"
        }
      ],
      "stateMutability": "view",
      "type": "function"
    },
    {
      "inputs": [
        {
          "internalType": "address",
          "name": "portAddress",
          "type": "address"
        },
        {
          "internalType": "bytes32",
          "name": "channelId",
          "type": "bytes32"
        },
        {
          "internalType": "uint64",
          "name": "sequence",
          "type": "uint64"
        },
        {
          "components": [
            {
              "internalType": "uint256",
              "name": "recvFee",
              "type": "uint256"
            },
            {
              "internalType": "uint256",
              "name": "ackFee",
              "type": "uint256"
            },
            {
              "internalType": "uint256",
              "name": "timeoutFee",
              "type": "uint256"
            }
          ],
          "internalType": "struct PacketFee",
          "name": "fee",
          "type": "tuple"
        }
      ],
      "name": "payPacketFeeAsync",
      "outputs": [],
      "stateMutability": "payable",
      "type": "function"
    },
    {
      "inputs": [
        {
          "internalType": "address",
          "name": "",
          "type": "address"
        },
        {
          "internalType": "bytes32",
          "name": "",
          "type": "bytes32"
        }
      ],
      "name": "portChannelMap",
      "outputs": [
        {
          "internalType": "string",
          "name": "version",
          "type": "string"
        },
        {
          "internalType": "enum ChannelOrder",
          "name": "ordering",
          "type": "uint8"
        },
        {
          "internalType": "bool",
          "name": "feeEnabled",
          "type": "bool"
        },
        {
          "internalType": "string",
          "name": "counterpartyPortId",
          "type": "string"
        },
        {
          "internalType": "bytes32",
          "name": "counterpartyChannelId",
          "type": "bytes32"
        }
      ],
      "stateMutability": "view",
      "type": "function"
    },
    {
      "inputs": [
        {
          "internalType": "address",
          "name": "addr",
          "type": "address"
        },
        {
          "internalType": "string",
          "name": "portId",
          "type": "string"
        }
      ],
      "name": "portIdAddressMatch",
      "outputs": [
        {
          "internalType": "bool",
          "name": "",
          "type": "bool"
        }
      ],
      "stateMutability": "view",
      "type": "function"
    },
    {
      "inputs": [
        {
          "internalType": "contract IbcReceiver",
          "name": "receiver",
          "type": "address"
        },
        {
          "components": [
            {
              "components": [
                {
                  "internalType": "string",
                  "name": "portId",
                  "type": "string"
                },
                {
                  "internalType": "bytes32",
                  "name": "channelId",
                  "type": "bytes32"
                }
              ],
              "internalType": "struct IbcEndpoint",
              "name": "src",
              "type": "tuple"
            },
            {
              "components": [
                {
                  "internalType": "string",
                  "name": "portId",
                  "type": "string"
                },
                {
                  "internalType": "bytes32",
                  "name": "channelId",
                  "type": "bytes32"
                }
              ],
              "internalType": "struct IbcEndpoint",
              "name": "dest",
              "type": "tuple"
            },
            {
              "internalType": "uint64",
              "name": "sequence",
              "type": "uint64"
            },
            {
              "internalType": "bytes",
              "name": "data",
              "type": "bytes"
            },
            {
              "components": [
                {
                  "internalType": "uint64",
                  "name": "revision_number",
                  "type": "uint64"
                },
                {
                  "internalType": "uint64",
                  "name": "revision_height",
                  "type": "uint64"
                }
              ],
              "internalType": "struct Height",
              "name": "timeoutHeight",
              "type": "tuple"
            },
            {
              "internalType": "uint64",
              "name": "timeoutTimestamp",
              "type": "uint64"
            }
          ],
          "internalType": "struct IbcPacket",
          "name": "packet",
          "type": "tuple"
        },
        {
          "components": [
            {
              "components": [
                {
                  "internalType": "uint64",
                  "name": "revision_number",
                  "type": "uint64"
                },
                {
                  "internalType": "uint64",
                  "name": "revision_height",
                  "type": "uint64"
                }
              ],
              "internalType": "struct Height",
              "name": "proofHeight",
              "type": "tuple"
            },
            {
              "internalType": "bytes",
              "name": "proof",
              "type": "bytes"
            }
          ],
          "internalType": "struct Proof",
          "name": "proof",
          "type": "tuple"
        }
      ],
      "name": "recvPacket",
      "outputs": [],
      "stateMutability": "nonpayable",
      "type": "function"
    },
    {
      "inputs": [],
      "name": "renounceOwnership",
      "outputs": [],
      "stateMutability": "nonpayable",
      "type": "function"
    },
    {
      "inputs": [
        {
          "internalType": "bytes32",
          "name": "channelId",
          "type": "bytes32"
        },
        {
          "internalType": "bytes",
          "name": "packet",
          "type": "bytes"
        },
        {
          "internalType": "uint64",
          "name": "timeoutTimestamp",
          "type": "uint64"
        },
        {
          "components": [
            {
              "internalType": "uint256",
              "name": "recvFee",
              "type": "uint256"
            },
            {
              "internalType": "uint256",
              "name": "ackFee",
              "type": "uint256"
            },
            {
              "internalType": "uint256",
              "name": "timeoutFee",
              "type": "uint256"
            }
          ],
          "internalType": "struct PacketFee",
          "name": "fee",
          "type": "tuple"
        }
      ],
      "name": "sendPacket",
      "outputs": [],
      "stateMutability": "payable",
      "type": "function"
    },
    {
      "inputs": [
        {
          "internalType": "string",
          "name": "_portPrefix",
          "type": "string"
        }
      ],
      "name": "setPortPrefix",
      "outputs": [],
      "stateMutability": "nonpayable",
      "type": "function"
    },
    {
      "inputs": [
        {
          "internalType": "contract IbcReceiver",
          "name": "receiver",
          "type": "address"
        },
        {
          "components": [
            {
              "components": [
                {
                  "internalType": "string",
                  "name": "portId",
                  "type": "string"
                },
                {
                  "internalType": "bytes32",
                  "name": "channelId",
                  "type": "bytes32"
                }
              ],
              "internalType": "struct IbcEndpoint",
              "name": "src",
              "type": "tuple"
            },
            {
              "components": [
                {
                  "internalType": "string",
                  "name": "portId",
                  "type": "string"
                },
                {
                  "internalType": "bytes32",
                  "name": "channelId",
                  "type": "bytes32"
                }
              ],
              "internalType": "struct IbcEndpoint",
              "name": "dest",
              "type": "tuple"
            },
            {
              "internalType": "uint64",
              "name": "sequence",
              "type": "uint64"
            },
            {
              "internalType": "bytes",
              "name": "data",
              "type": "bytes"
            },
            {
              "components": [
                {
                  "internalType": "uint64",
                  "name": "revision_number",
                  "type": "uint64"
                },
                {
                  "internalType": "uint64",
                  "name": "revision_height",
                  "type": "uint64"
                }
              ],
              "internalType": "struct Height",
              "name": "timeoutHeight",
              "type": "tuple"
            },
            {
              "internalType": "uint64",
              "name": "timeoutTimestamp",
              "type": "uint64"
            }
          ],
          "internalType": "struct IbcPacket",
          "name": "packet",
          "type": "tuple"
        },
        {
          "components": [
            {
              "components": [
                {
                  "internalType": "uint64",
                  "name": "revision_number",
                  "type": "uint64"
                },
                {
                  "internalType": "uint64",
                  "name": "revision_height",
                  "type": "uint64"
                }
              ],
              "internalType": "struct Height",
              "name": "proofHeight",
              "type": "tuple"
            },
            {
              "internalType": "bytes",
              "name": "proof",
              "type": "bytes"
            }
          ],
          "internalType": "struct Proof",
          "name": "proof",
          "type": "tuple"
        }
      ],
      "name": "timeout",
      "outputs": [],
      "stateMutability": "nonpayable",
      "type": "function"
    },
    {
      "inputs": [
        {
          "internalType": "address",
          "name": "newOwner",
          "type": "address"
        }
      ],
      "name": "transferOwnership",
      "outputs": [],
      "stateMutability": "nonpayable",
      "type": "function"
    },
    {
      "inputs": [
        {
          "components": [
            {
              "internalType": "uint256",
              "name": "app_hash",
              "type": "uint256"
            },
            {
              "internalType": "uint256",
              "name": "valset_hash",
              "type": "uint256"
            },
            {
              "internalType": "uint256",
              "name": "time",
              "type": "uint256"
            },
            {
              "internalType": "uint256",
              "name": "height",
              "type": "uint256"
            }
          ],
          "internalType": "struct ConsensusState",
          "name": "consensusState",
          "type": "tuple"
        },
        {
          "components": [
            {
              "internalType": "uint256[2]",
              "name": "a",
              "type": "uint256[2]"
            },
            {
              "internalType": "uint256[2][2]",
              "name": "b",
              "type": "uint256[2][2]"
            },
            {
              "internalType": "uint256[2]",
              "name": "c",
              "type": "uint256[2]"
            }
          ],
          "internalType": "struct ZkProof",
          "name": "zkProof",
          "type": "tuple"
        }
      ],
      "name": "updateClientWithConsensusState",
      "outputs": [],
      "stateMutability": "nonpayable",
      "type": "function"
    },
    {
      "inputs": [
        {
          "internalType": "uint256",
          "name": "height",
          "type": "uint256"
        },
        {
          "internalType": "uint256",
          "name": "appHash",
          "type": "uint256"
        }
      ],
      "name": "updateClientWithOptimisticConsensusState",
      "outputs": [
        {
          "internalType": "uint256",
          "name": "fraudProofEndTime",
          "type": "uint256"
        },
        {
          "internalType": "bool",
          "name": "ended",
          "type": "bool"
        }
      ],
      "stateMutability": "nonpayable",
      "type": "function"
    },
    {
      "inputs": [
        {
          "components": [
            {
              "internalType": "bytes",
              "name": "clientState",
              "type": "bytes"
            },
            {
              "components": [
                {
                  "internalType": "uint256",
                  "name": "app_hash",
                  "type": "uint256"
                },
                {
                  "internalType": "uint256",
                  "name": "valset_hash",
                  "type": "uint256"
                },
                {
                  "internalType": "uint256",
                  "name": "time",
                  "type": "uint256"
                },
                {
                  "internalType": "uint256",
                  "name": "height",
                  "type": "uint256"
                }
              ],
              "internalType": "struct ConsensusState",
              "name": "consensusState",
              "type": "tuple"
            }
          ],
          "internalType": "struct UpgradeClientMsg",
          "name": "upgradeClientMsg",
          "type": "tuple"
        }
      ],
      "name": "upgradeClient",
      "outputs": [],
      "stateMutability": "nonpayable",
      "type": "function"
    },
    {
      "inputs": [
        {
          "internalType": "address",
          "name": "receiver",
          "type": "address"
        },
        {
          "components": [
            {
              "components": [
                {
                  "internalType": "string",
                  "name": "portId",
                  "type": "string"
                },
                {
                  "internalType": "bytes32",
                  "name": "channelId",
                  "type": "bytes32"
                }
              ],
              "internalType": "struct IbcEndpoint",
              "name": "src",
              "type": "tuple"
            },
            {
              "components": [
                {
                  "internalType": "string",
                  "name": "portId",
                  "type": "string"
                },
                {
                  "internalType": "bytes32",
                  "name": "channelId",
                  "type": "bytes32"
                }
              ],
              "internalType": "struct IbcEndpoint",
              "name": "dest",
              "type": "tuple"
            },
            {
              "internalType": "uint64",
              "name": "sequence",
              "type": "uint64"
            },
            {
              "internalType": "bytes",
              "name": "data",
              "type": "bytes"
            },
            {
              "components": [
                {
                  "internalType": "uint64",
                  "name": "revision_number",
                  "type": "uint64"
                },
                {
                  "internalType": "uint64",
                  "name": "revision_height",
                  "type": "uint64"
                }
              ],
              "internalType": "struct Height",
              "name": "timeoutHeight",
              "type": "tuple"
            },
            {
              "internalType": "uint64",
              "name": "timeoutTimestamp",
              "type": "uint64"
            }
          ],
          "internalType": "struct IbcPacket",
          "name": "packet",
          "type": "tuple"
        }
      ],
      "name": "writeTimeoutPacket",
      "outputs": [],
      "stateMutability": "nonpayable",
      "type": "function"
    }
  ],
  "bytecode": {
    "object": "0x60806040526002805460ff60a01b191690553480156200001e57600080fd5b50604051620062fc380380620062fc83398101604081905262000041916200015f565b6200004c33620000ce565b600180546001600160a01b038087166001600160a01b031992831617909255600280549286169290911691909117905560076200008a838262000301565b5090516008805463ffffffff191663ffffffff909216919091179055601180546001600160a01b0319166001600160a01b0390921691909117905550620003cd9050565b600080546001600160a01b038381166001600160a01b0319831681178455604051919092169283917f8be0079c531659141344cd1fd0a4f28419497f9722a3daafe3b4186f6b6457e09190a35050565b6001600160a01b03811681146200013457600080fd5b50565b634e487b7160e01b600052604160045260246000fd5b80516200015a816200011e565b919050565b600080600080608085870312156200017657600080fd5b845162000183816200011e565b8094505060208086015162000198816200011e565b60408701519094506001600160401b0380821115620001b657600080fd5b818801915088601f830112620001cb57600080fd5b815181811115620001e057620001e062000137565b604051601f8201601f19908116603f011681019083821181831017156200020b576200020b62000137565b816040528281528b868487010111156200022457600080fd5b600093505b8284101562000248578484018601518185018701529285019262000229565b600086848301015280975050505050505062000267606086016200014d565b905092959194509250565b600181811c908216806200028757607f821691505b602082108103620002a857634e487b7160e01b600052602260045260246000fd5b50919050565b601f821115620002fc57600081815260208120601f850160051c81016020861015620002d75750805b601f850160051c820191505b81811015620002f857828155600101620002e3565b5050505b505050565b81516001600160401b038111156200031d576200031d62000137565b62000335816200032e845462000272565b84620002ae565b602080601f8311600181146200036d5760008415620003545750858301515b600019600386901b1c1916600185901b178555620002f8565b600085815260208120601f198616915b828110156200039e578886015182559484019460019091019084016200037d565b5085821015620003bd5787850151600019600388901b60f8161c191681555b5050505050600190811b01905550565b615f1f80620003dd6000396000f3fe6080604052600436106101655760003560e01c8063c2a2514d116100d1578063e36e013f1161008a578063ecbb692811610064578063ecbb69281461049d578063f2fde38b146104bd578063f4eac785146104dd578063f4ecbb15146104fd57600080fd5b8063e36e013f14610410578063eb86ffdb14610440578063ecb039291461047d57600080fd5b8063c2a2514d14610325578063ca034bff14610368578063ccc026071461037b578063d58be73c1461038e578063da4b5a8d146103d0578063dece4d01146103f057600080fd5b80638b24b4cb116101235780638b24b4cb146102375780638da5cb5b146102575780639eb498181461027f5780639f59ae71146102b4578063ac9c50b6146102d4578063b2b1bf03146102f457600080fd5b806280d0b11461016a578063194488631461018c57806342852d24146101ac578063715018a6146101e25780637e9077b0146101f757806380840e6b14610217575b600080fd5b34801561017657600080fd5b5061018a61018536600461437f565b61051d565b005b34801561019857600080fd5b5061018a6101a73660046143f4565b6108f1565b3480156101b857600080fd5b506101cc6101c736600461448e565b6111d5565b6040516101d99190614542565b60405180910390f35b3480156101ee57600080fd5b5061018a61148f565b34801561020357600080fd5b5061018a6102123660046146bc565b6114a3565b34801561022357600080fd5b5061018a6102323660046147b9565b6116c9565b34801561024357600080fd5b5061018a6102523660046147f5565b611721565b34801561026357600080fd5b506000546040516001600160a01b0390911681526020016101d9565b34801561028b57600080fd5b5061029f61029a36600461480e565b611a4b565b604080519283529015156020830152016101d9565b3480156102c057600080fd5b5061018a6102cf366004614830565b611afb565b3480156102e057600080fd5b5061018a6102ef366004614871565b611b2e565b34801561030057600080fd5b5061031461030f36600461448e565b611c8c565b6040516101d99594939291906148c0565b34801561033157600080fd5b506003546004546005546006546103489392919084565b6040805194855260208501939093529183015260608201526080016101d9565b61018a610376366004614924565b611dde565b61018a610389366004614993565b612243565b34801561039a57600080fd5b506103ae6103a93660046149e3565b6123f7565b60408051825181526020808401519082015291810151908201526060016101d9565b3480156103dc57600080fd5b5061018a6103eb36600461437f565b61247c565b3480156103fc57600080fd5b5061018a61040b366004614a21565b612ca4565b34801561041c57600080fd5b5061043061042b366004614a68565b612d80565b60405190151581526020016101d9565b34801561044c57600080fd5b5061046061045b3660046147f5565b612e6b565b6040805193845260208401929092521515908201526060016101d9565b34801561048957600080fd5b5061018a610498366004614abc565b612f17565b3480156104a957600080fd5b5061018a6104b8366004614bd7565b61330b565b3480156104c957600080fd5b5061018a6104d8366004614c25565b613776565b3480156104e957600080fd5b5061018a6104f8366004614c42565b6137ef565b34801561050957600080fd5b5061018a6105183660046147b9565b613e5d565b6105358361052b8480614ccb565b61042b9080614ceb565b610555576040516001627109bd60e01b0319815260040160405180910390fd5b60115460405163298be15960e21b81526001600160a01b039091169063a62f856490610585908490600401614e03565b60006040518083038186803b15801561059d57600080fd5b505afa1580156105b1573d6000803e3d6000fd5b505050506001600160a01b0383166000908152600d60205260408120816105d88580614ccb565b60200135815260200190815260200160002060008460400160208101906105ff9190614e7b565b6001600160401b0316815260208101919091526040016000205460ff1690508061063c5760405163ca89746b60e01b815260040160405180910390fd5b6001600160a01b03841660009081526010602052604081208161065f8680614ccb565b60200135815260200190815260200160002060008560400160208101906106869190614e7b565b6001600160401b03166001600160401b0316815260200190815260200160002090508060020154600014610722576002805490820154604051632da1ad7b60e11b81523260048201819052602482019290925290916001600160a01b031690635b435af690604401600060405180830381600087803b15801561070857600080fd5b505af115801561071c573d6000803e3d6000fd5b50505050505b60408051606081018252825481526001830154602082015260028301549181019190915260009061075290613ec4565b905080156107c15760025460405163410085df60e01b81526001600160a01b038881166004830152602482018490529091169063410085df90604401600060405180830381600087803b1580156107a857600080fd5b505af11580156107bc573d6000803e3d6000fd5b505050505b60405163180be60d60e21b81526001600160a01b0387169063602f9834906107ed908890600401614f9b565b600060405180830381600087803b15801561080757600080fd5b505af115801561081b573d6000803e3d6000fd5b5050506001600160a01b0387166000908152600d6020526040812091506108428780614ccb565b60200135815260200190815260200160002060008660400160208101906108699190614e7b565b6001600160401b0316815260208101919091526040908101600020805460ff1916905561089c9060608701908701614e7b565b6001600160401b03166108af8680614ccb565b60200135876001600160a01b03167f19ac40c4084d9bfb5b43f819a94bf01c70789b0d579871f59e4f86def04d934460405160405180910390a4505050505050565b6108ff8461052b8580614ccb565b61091c57604051630f49276d60e11b815260040160405180910390fd5b601154604051630c28ca8360e01b81526001600160a01b0390911690630c28ca839061094c908490600401614fae565b60006040518083038186803b15801561096457600080fd5b505afa158015610978573d6000803e3d6000fd5b505050506001600160a01b0384166000908152600d602052604081208161099f8680614ccb565b60200135815260200190815260200160002060008560400160208101906109c69190614e7b565b6001600160401b0316815260208101919091526040016000205460ff16905080610a035760405163ca89746b60e01b815260040160405180910390fd5b6001600160a01b038516600090815260096020526040812081610a268780614ccb565b6020013581526020019081526020016000206040518060c0016040529081600082018054610a5390615064565b80601f0160208091040260200160405190810160405280929190818152602001828054610a7f90615064565b8015610acc5780601f10610aa157610100808354040283529160200191610acc565b820191906000526020600020905b815481529060010190602001808311610aaf57829003601f168201915b5050509183525050600182015460209091019060ff166002811115610af357610af361450a565b6002811115610b0457610b0461450a565b81526001820154610100900460ff161515602080830191909152600283018054604080518285028101850182528281529401939260009084015b82821015610bea578382906000526020600020018054610b5d90615064565b80601f0160208091040260200160405190810160405280929190818152602001828054610b8990615064565b8015610bd65780601f10610bab57610100808354040283529160200191610bd6565b820191906000526020600020905b815481529060010190602001808311610bb957829003601f168201915b505050505081526020019060010190610b3e565b505050508152602001600382018054610c0290615064565b80601f0160208091040260200160405190810160405280929190818152602001828054610c2e90615064565b8015610c7b5780601f10610c5057610100808354040283529160200191610c7b565b820191906000526020600020905b815481529060010190602001808311610c5e57829003601f168201915b5050505050815260200160048201548152505090508060400151610cda57604051639ea53c5360e01b815260206004820152601060248201526f1b9bdb8b5a5b98d95b9d1a5d9a5e995960821b60448201526064015b60405180910390fd5b600281602001516002811115610cf257610cf261450a565b03610de7576001600160a01b0386166000908152600c6020526040812090610d1a8780614ccb565b60209081013582528101919091526040908101600020546001600160401b031690610d4b9060608801908801614e7b565b6001600160401b031614610d725760405163362a414d60e01b815260040160405180910390fd5b610d826060860160408701614e7b565b610d8d9060016150ae565b6001600160a01b0387166000908152600c6020526040812090610db08880614ccb565b60200135815260200190815260200160002060006101000a8154816001600160401b0302191690836001600160401b031602179055505b610df46020850185614ceb565b9050601414610e165760405163fae2f7a360e01b815260040160405180910390fd5b6040516000602082018190529060340160405160208183030381529060405280519060200120858060200190610e4c9190614ceb565b604051602001610e5d9291906150d5565b6040516020818303038152906040528051906020012003610e7f575085610e9b565b610e8c6020860186614ceb565b610e95916150e5565b60601c90505b6001600160a01b038716600090815260106020526040812032919081610ec18a80614ccb565b6020013581526020019081526020016000206000896040016020810190610ee89190614e7b565b6001600160401b031681526020808201929092526040908101600020600254825180840184526001600160a01b0388811682528781168287015284518086018652845481526001850154968101969096529351633e23785160e11b8152929550921692637c46f0a292610f609290919060040161511a565b600060405180830381600087803b158015610f7a57600080fd5b505af1158015610f8e573d6000803e3d6000fd5b505060408051606081018252845481526001850154602082015260028501549181019190915260009250610fc29150613f10565b905080156110315760025460405163410085df60e01b81526001600160a01b038c81166004830152602482018490529091169063410085df90604401600060405180830381600087803b15801561101857600080fd5b505af115801561102c573d6000803e3d6000fd5b505050505b604080518082019091526000908061104c60208c018c61517f565b1515815260200161106060408c018c614ceb565b8080601f0160208091040260200160405190810160405280939291908181526020018383808284376000920191909152505050915250604051637e1d42b560e01b81529091506001600160a01b038c1690637e1d42b5906110c7908d9085906004016151bd565b600060405180830381600087803b1580156110e157600080fd5b505af11580156110f5573d6000803e3d6000fd5b5050506001600160a01b038c166000908152600d60205260408120915061111c8c80614ccb565b60200135815260200190815260200160002060008b60400160208101906111439190614e7b565b6001600160401b031681526020810191909152604001600020805460ff1916905561116e8a80614ccb565b602001356001600160a01b038c167fe46f6591236abe528fe47a3b281fb002524dadd3e62b1f317ed285d07273c3b16111ad60608e0160408f01614e7b565b6040516001600160401b03909116815260200160405180910390a35050505050505050505050565b61120e6040805160c081019091526060815260208101600081526000602082018190526060604083018190528083015260809091015290565b6001600160a01b038316600090815260096020908152604080832085845290915290819020815160c0810190925280548290829061124b90615064565b80601f016020809104026020016040519081016040528092919081815260200182805461127790615064565b80156112c45780601f10611299576101008083540402835291602001916112c4565b820191906000526020600020905b8154815290600101906020018083116112a757829003601f168201915b5050509183525050600182015460209091019060ff1660028111156112eb576112eb61450a565b60028111156112fc576112fc61450a565b81526001820154610100900460ff161515602080830191909152600283018054604080518285028101850182528281529401939260009084015b828210156113e257838290600052602060002001805461135590615064565b80601f016020809104026020016040519081016040528092919081815260200182805461138190615064565b80156113ce5780601f106113a3576101008083540402835291602001916113ce565b820191906000526020600020905b8154815290600101906020018083116113b157829003601f168201915b505050505081526020019060010190611336565b5050505081526020016003820180546113fa90615064565b80601f016020809104026020016040519081016040528092919081815260200182805461142690615064565b80156114735780601f1061144857610100808354040283529160200191611473565b820191906000526020600020905b81548152906001019060200180831161145657829003601f168201915b5050505050815260200160048201548152505090505b92915050565b611497613f44565b6114a16000613f9e565b565b6114ad8280614ceb565b90506000036114cf576040516341cd6a4760e01b815260040160405180910390fd5b600060208301351580156114ef57506114eb6040840184614ceb565b1590505b61153957602083013515801590611513575061150e6040840184614ceb565b151590505b1561152057506001611539565b604051637d6ba8a560e01b815260040160405180910390fd5b80156115bc576011546040805160808101909152604d8082526001600160a01b0390921691630c28ca83918591615e7360208301396040518363ffffffff1660e01b815260040161158b9291906151e2565b60006040518083038186803b1580156115a357600080fd5b505afa1580156115b7573d6000803e3d6000fd5b505050505b60006001600160a01b038b1663d39b59c88b8b8b8b8b8b6115dd8c80614ceb565b8d602001358e80604001906115f29190614ceb565b6040518c63ffffffff1660e01b81526004016116189b9a999897969594939291906152d9565b6000604051808303816000875af1158015611637573d6000803e3d6000fd5b505050506040513d6000823e601f3d908101601f1916820160405261165f91908101906153f9565b90506001600160a01b038b167f302d58680222aca6b36ce7b9a42191dce3989bd867cc20f4ec54f5e563010934828a8a8a8a61169b8b80614ceb565b8c602001356040516116b4989796959493929190615441565b60405180910390a25050505050505050505050565b6116d1613f44565b600254600160a01b900460ff166116fb57604051631061b23960e11b815260040160405180910390fd5b60208101356003556040810135600455606081013560055560800135600655565b505050565b336000908152600960209081526040808320848452909152808220815160c0810190925280548290829061175490615064565b80601f016020809104026020016040519081016040528092919081815260200182805461178090615064565b80156117cd5780601f106117a2576101008083540402835291602001916117cd565b820191906000526020600020905b8154815290600101906020018083116117b057829003601f168201915b5050509183525050600182015460209091019060ff1660028111156117f4576117f461450a565b60028111156118055761180561450a565b81526001820154610100900460ff161515602080830191909152600283018054604080518285028101850182528281529401939260009084015b828210156118eb57838290600052602060002001805461185e90615064565b80601f016020809104026020016040519081016040528092919081815260200182805461188a90615064565b80156118d75780601f106118ac576101008083540402835291602001916118d7565b820191906000526020600020905b8154815290600101906020018083116118ba57829003601f168201915b50505050508152602001906001019061183f565b50505050815260200160038201805461190390615064565b80601f016020809104026020016040519081016040528092919081815260200182805461192f90615064565b801561197c5780601f106119515761010080835404028352916020019161197c565b820191906000526020600020905b81548152906001019060200180831161195f57829003601f168201915b50505091835250506004919091015460209091015260a08101519091506119b657604051631109bfb360e31b815260040160405180910390fd5b608081015160a0820151604051635fe39e0d60e01b815233928392635fe39e0d926119e792889290916004016154a7565b600060405180830381600087803b158015611a0157600080fd5b505af1158015611a15573d6000803e3d6000fd5b50506040518592503391507fe893e4ba0e364cdc96364b1e1e0d53b0d91e5fd6aa0ee9d81a17ecd61178bf1790600090a3505050565b6002546000908190600160a01b900460ff16611a7a57604051631061b23960e11b815260040160405180910390fd5b6011546040516387830fe360e01b815260048101869052602481018590526001600160a01b03909116906387830fe39060440160408051808303816000875af1158015611acb573d6000803e3d6000fd5b505050506040513d601f19601f82011682018060405250810190611aef91906154d0565b915091505b9250929050565b611b03613f44565b6007611b1082848361554e565b506008805463ffffffff191663ffffffff9290921691909117905550565b611b3c8261052b8380614ccb565b611b5c576040516001627109bd60e01b0319815260040160405180910390fd5b6001600160a01b0382166000908152600e602090815260408220908290611b8590850185614ccb565b6020013581526020019081526020016000206000836040016020810190611bac9190614e7b565b6001600160401b0316815260208101919091526040016000205460ff1690508015611bea5760405163066c745760e01b815260040160405180910390fd5b611bf382613fee565b611c10576040516312c9cc9f60e01b815260040160405180910390fd5b611c1d6020830183614ccb565b602001356001600160a01b0384167fedbcd9eeb09d85c3ea1b5bf002c04478059cb261cab82c903885cefccae374bc611c5c6060860160408701614e7b565b60808601611c7060e0880160c08901614e7b565b604051611c7f9392919061560e565b60405180910390a3505050565b6009602090815260009283526040808420909152908252902080548190611cb290615064565b80601f0160208091040260200160405190810160405280929190818152602001828054611cde90615064565b8015611d2b5780601f10611d0057610100808354040283529160200191611d2b565b820191906000526020600020905b815481529060010190602001808311611d0e57829003601f168201915b505050506001830154600384018054939460ff8084169561010090940416935091611d5590615064565b80601f0160208091040260200160405190810160405280929190818152602001828054611d8190615064565b8015611dce5780601f10611da357610100808354040283529160200191611dce565b820191906000526020600020905b815481529060010190602001808311611db157829003601f168201915b5050505050908060040154905085565b336000908152600960209081526040808320888452909152808220815160c08101909252805482908290611e1190615064565b80601f0160208091040260200160405190810160405280929190818152602001828054611e3d90615064565b8015611e8a5780601f10611e5f57610100808354040283529160200191611e8a565b820191906000526020600020905b815481529060010190602001808311611e6d57829003601f168201915b5050509183525050600182015460209091019060ff166002811115611eb157611eb161450a565b6002811115611ec257611ec261450a565b81526001820154610100900460ff161515602080830191909152600283018054604080518285028101850182528281529401939260009084015b82821015611fa8578382906000526020600020018054611f1b90615064565b80601f0160208091040260200160405190810160405280929190818152602001828054611f4790615064565b8015611f945780601f10611f6957610100808354040283529160200191611f94565b820191906000526020600020905b815481529060010190602001808311611f7757829003601f168201915b505050505081526020019060010190611efc565b505050508152602001600382018054611fc090615064565b80601f0160208091040260200160405190810160405280929190818152602001828054611fec90615064565b80156120395780601f1061200e57610100808354040283529160200191612039565b820191906000526020600020905b81548152906001019060200180831161201c57829003601f168201915b50505091835250506004919091015460209091015260a081015190915061207357604051631109bfb360e31b815260040160405180910390fd5b336000908152600a602090815260408083208984529091528120546001600160401b0316908190036120b857604051631e510bfb60e21b815260040160405180910390fd5b6002546000906001600160a01b03166120de6120d93687900387018761563e565b614079565b604051600081818185875af1925050503d806000811461211a576040519150601f19603f3d011682016040523d82523d6000602084013e61211f565b606091505b5050905080612141576040516356e38bc560e11b815260040160405180910390fd5b3360008181526010602090815260408083208c845282528083206001600160401b03871680855290835281842089358155898401356001808301919091558a840135600290920191909155948452600d83528184208d855283528184209084529091529020805460ff1916821790556121bb9083906150ae565b336000818152600a602090815260408083208d845290915290819020805467ffffffffffffffff19166001600160401b03949094169390931790925590518991907ffa2b50af641c9fe497248f944915bafc2aa44400425d815dd9b7417c00f9f9b890612231908b908b9088908c908c90615699565b60405180910390a35050505050505050565b6001600160a01b0384166000908152600d6020908152604080832086845282528083206001600160401b038616845290915290205460ff16806122995760405163ca89746b60e01b815260040160405180910390fd5b6002546000906001600160a01b03166122ba6120d93686900386018661563e565b604051600081818185875af1925050503d80600081146122f6576040519150601f19603f3d011682016040523d82523d6000602084013e6122fb565b606091505b505090508061231d576040516356e38bc560e11b815260040160405180910390fd5b6001600160a01b038616600090815260106020908152604080832088845282528083206001600160401b0388168452909152908190208151606081019092528054909190819061236f908735906156ed565b81526020018560200135836001015461238891906156ed565b8152602001856040013583600201546123a191906156ed565b90526001600160a01b0390971660009081526010602090815260408083209883529781528782206001600160401b0390971682529586528690208751815594870151600186015550505050910151600290910155565b61241b60405180606001604052806000815260200160008152602001600081525090565b506001600160a01b038316600090815260106020908152604080832085845282528083206001600160401b038516845282529182902082516060810184528154815260018201549281019290925260020154918101919091525b9392505050565b61248d8361052b6020850185614ccb565b6124ad576040516001627109bd60e01b0319815260040160405180910390fd5b601154604051630c28ca8360e01b81526001600160a01b0390911690630c28ca83906124dd908490600401615700565b60006040518083038186803b1580156124f557600080fd5b505afa158015612509573d6000803e3d6000fd5b505050506001600160a01b0383166000908152600e60209081526040822090829061253690860186614ccb565b602001358152602001908152602001600020600084604001602081019061255d9190614e7b565b6001600160401b0316815260208101919091526040016000205460ff169050801561259b5760405163066c745760e01b815260040160405180910390fd5b6001600160a01b0384166000908152600e60209081526040822060019290916125c690870187614ccb565b60200135815260200190815260200160002060008560400160208101906125ed9190614e7b565b6001600160401b0316815260208082019290925260409081016000908120805460ff1916941515949094179093556001600160a01b038716835260098252822090829061263c90870187614ccb565b6020013581526020019081526020016000206040518060c001604052908160008201805461266990615064565b80601f016020809104026020016040519081016040528092919081815260200182805461269590615064565b80156126e25780601f106126b7576101008083540402835291602001916126e2565b820191906000526020600020905b8154815290600101906020018083116126c557829003601f168201915b5050509183525050600182015460209091019060ff1660028111156127095761270961450a565b600281111561271a5761271a61450a565b81526001820154610100900460ff161515602080830191909152600283018054604080518285028101850182528281529401939260009084015b8282101561280057838290600052602060002001805461277390615064565b80601f016020809104026020016040519081016040528092919081815260200182805461279f90615064565b80156127ec5780601f106127c1576101008083540402835291602001916127ec565b820191906000526020600020905b8154815290600101906020018083116127cf57829003601f168201915b505050505081526020019060010190612754565b50505050815260200160038201805461281890615064565b80601f016020809104026020016040519081016040528092919081815260200182805461284490615064565b80156128915780601f1061286657610100808354040283529160200191612891565b820191906000526020600020905b81548152906001019060200180831161287457829003601f168201915b50505091835250506004919091015460209091015290506002816020015160028111156128c0576128c061450a565b036129bf576001600160a01b0385166000908152600b60209081526040822091906128ed90870187614ccb565b60209081013582528101919091526040908101600020546001600160401b03169061291e9060608701908701614e7b565b6001600160401b0316146129455760405163362a414d60e01b815260040160405180910390fd5b6129556060850160408601614e7b565b6129609060016150ae565b6001600160a01b0386166000908152600b602090815260408220919061298890880188614ccb565b60200135815260200190815260200160002060006101000a8154816001600160401b0302191690836001600160401b031602179055505b6129cc6020850185614ccb565b602001356001600160a01b0386167fde5b57e6566d68a30b0979431df3d5df6db3b9aa89f8820f595b9315bf86d067612a0b6060880160408901614e7b565b6040516001600160401b03909116815260200160405180910390a3612a2f84613fee565b15612ab45784612a426020860186614ccb565b602001356001600160a01b0382167fedbcd9eeb09d85c3ea1b5bf002c04478059cb261cab82c903885cefccae374bc612a816060890160408a01614e7b565b60808901612a9560e08b0160c08c01614e7b565b604051612aa49392919061560e565b60405180910390a3505050505050565b6040516326e6055360e11b81526000906001600160a01b03871690634dcc0aa690612ae3908890600401614f9b565b6000604051808303816000875af1158015612b02573d6000803e3d6000fd5b505050506040513d6000823e601f3d908101601f19168201604052612b2a91908101906157df565b6001600160a01b0387166000908152600f6020908152604082209293509091908290612b5890890189614ccb565b6020013581526020019081526020016000206000876040016020810190612b7f9190614e7b565b6001600160401b0316815260208101919091526040016000205460ff1690508015612bbd57604051637aa549d360e01b815260040160405180910390fd5b6001600160a01b0387166000908152600f6020908152604082206001929091612be8908a018a614ccb565b6020013581526020019081526020016000206000886040016020810190612c0f9190614e7b565b6001600160401b03168152602080820192909252604001600020805460ff191692151592909217909155612c4590870187614ccb565b602001356001600160a01b0388167fa32e6f42b1d63fb83ad73b009a6dbb9413d1da02e95b1bb08f081815eea8db20612c8460608a0160408b01614e7b565b85604051612c9392919061588b565b60405180910390a350505050505050565b600254600160a01b900460ff16612cce57604051631061b23960e11b815260040160405180910390fd5b60015460405163128cba2560e01b81526001600160a01b039091169063128cba2590612d0390600390869086906004016158ad565b602060405180830381865afa158015612d20573d6000803e3d6000fd5b505050506040513d601f19601f82011682018060405250810190612d449190615949565b612d61576040516318c1c54d60e01b815260040160405180910390fd5b5080356003556020810135600455604081013560055560600135600655565b600854600090612d989063ffffffff16828486615966565b604051602001612da99291906150d5565b604051602081830303815290604052805190602001206007604051602001612dd19190615990565b6040516020818303038152906040528051906020012014612df457506000612475565b600854600090612e0d90849063ffffffff168187615966565b8080601f01602080910402602001604051908101604052809392919081815260200183838082843760009201919091525092935050506001600160a01b0386169050612e58826140ac565b6001600160a01b03161495945050505050565b6000806000600260149054906101000a900460ff16612e9d57604051631061b23960e11b815260040160405180910390fd5b60115460405163089935e560e31b8152600481018690526001600160a01b03909116906344c9af2890602401606060405180830381865afa158015612ee6573d6000803e3d6000fd5b505050506040513d601f19601f82011682018060405250810190612f0a9190615a06565b9250925092509193909250565b601160009054906101000a90046001600160a01b03166001600160a01b0316630c28ca83826040518060400160405280601d81526020017f6368616e6e656c2f706174682f746f2f62652f61646465642f686572650000008152506040518060800160405280605e8152602001615dc2605e91396040518463ffffffff1660e01b8152600401612fa993929190615a3f565b60006040518083038186803b158015612fc157600080fd5b505afa158015612fd5573d6000803e3d6000fd5b505060405163a6c50b4d60e01b81526001600160a01b038f16925063a6c50b4d915061300b908e90889088908890600401615abb565b600060405180830381600087803b15801561302557600080fd5b505af1158015613039573d6000803e3d6000fd5b505050506040518060c0016040528084848080601f0160208091040260200160405190810160405280939291908181526020018383808284376000920191909152505050908252506020018960028111156130965761309661450a565b815288151560208201526040016130ad8b8d615adb565b815260200187878080601f016020809104026020016040519081016040528093929190818152602001838380828437600092018290525093855250505060209182018790526001600160a01b038f1681526009825260408082208f8352909252208151819061311c9082615b9a565b50602082015160018083018054909160ff19909116908360028111156131445761314461450a565b021790555060408201516001820180549115156101000261ff001990921691909117905560608201518051613183916002840191602090910190614259565b50608082015160038201906131989082615b9a565b5060a082015181600401559050506001600a60008e6001600160a01b03166001600160a01b0316815260200190815260200160002060008d815260200190815260200160002060006101000a8154816001600160401b0302191690836001600160401b031602179055506001600b60008e6001600160a01b03166001600160a01b0316815260200190815260200160002060008d815260200190815260200160002060006101000a8154816001600160401b0302191690836001600160401b031602179055506001600c60008e6001600160a01b03166001600160a01b0316815260200190815260200160002060008d815260200190815260200160002060006101000a8154816001600160401b0302191690836001600160401b031602179055508b6001600160a01b03167fec10e9c95bcd0a3561931a33a25adba5f809e8d25279a05da83a095e19f02add8c6040516132f591815260200190565b60405180910390a2505050505050505050505050565b601160009054906101000a90046001600160a01b03166001600160a01b0316630c28ca83826040518060400160405280601d81526020017f6368616e6e656c2f706174682f746f2f62652f61646465642f68657265000000815250604051806080016040528060538152602001615e20605391396040518463ffffffff1660e01b815260040161339d93929190615a3f565b60006040518083038186803b1580156133b557600080fd5b505afa1580156133c9573d6000803e3d6000fd5b505050506001600160a01b0383166000908152600960209081526040808320858452909152808220815160c0810190925280548290829061340990615064565b80601f016020809104026020016040519081016040528092919081815260200182805461343590615064565b80156134825780601f1061345757610100808354040283529160200191613482565b820191906000526020600020905b81548152906001019060200180831161346557829003601f168201915b5050509183525050600182015460209091019060ff1660028111156134a9576134a961450a565b60028111156134ba576134ba61450a565b81526001820154610100900460ff161515602080830191909152600283018054604080518285028101850182528281529401939260009084015b828210156135a057838290600052602060002001805461351390615064565b80601f016020809104026020016040519081016040528092919081815260200182805461353f90615064565b801561358c5780601f106135615761010080835404028352916020019161358c565b820191906000526020600020905b81548152906001019060200180831161356f57829003601f168201915b5050505050815260200190600101906134f4565b5050505081526020016003820180546135b890615064565b80601f01602080910402602001604051908101604052809291908181526020018280546135e490615064565b80156136315780601f1061360657610100808354040283529160200191613631565b820191906000526020600020905b81548152906001019060200180831161361457829003601f168201915b50505091835250506004919091015460209091015260a081015190915061366b57604051634d93b09d60e11b815260040160405180910390fd5b608081015160a0820151604051635fe39e0d60e01b815286926001600160a01b03841692635fe39e0d926136a592899290916004016154a7565b600060405180830381600087803b1580156136bf57600080fd5b505af11580156136d3573d6000803e3d6000fd5b5050506001600160a01b03861660009081526009602090815260408083208884529091528120915061370582826142af565b60018201805461ffff191690556137206002830160006142e9565b61372e6003830160006142af565b6004820160009055505083856001600160a01b03167fe893e4ba0e364cdc96364b1e1e0d53b0d91e5fd6aa0ee9d81a17ecd61178bf1760405160405180910390a35050505050565b61377e613f44565b6001600160a01b0381166137e35760405162461bcd60e51b815260206004820152602660248201527f4f776e61626c653a206e6577206f776e657220697320746865207a65726f206160448201526564647265737360d01b6064820152608401610cd1565b6137ec81613f9e565b50565b6137fd8461052b8580614ccb565b61381a57604051630f49276d60e11b815260040160405180910390fd5b601160009054906101000a90046001600160a01b03166001600160a01b0316630c28ca83826040518060400160405280600f81526020016e0c2c6d65ee0c2c6d6cae85ee0c2e8d608b1b8152506040518060600160405280602a8152602001615ec0602a91396040518463ffffffff1660e01b815260040161389e93929190615c59565b60006040518083038186803b1580156138b657600080fd5b505afa1580156138ca573d6000803e3d6000fd5b505050506001600160a01b0384166000908152600d60205260408120816138f18680614ccb565b60200135815260200190815260200160002060008560400160208101906139189190614e7b565b6001600160401b0316815260208101919091526040016000205460ff169050806139555760405163ca89746b60e01b815260040160405180910390fd5b6001600160a01b0385166000908152600960205260408120816139788780614ccb565b6020013581526020019081526020016000206040518060c00160405290816000820180546139a590615064565b80601f01602080910402602001604051908101604052809291908181526020018280546139d190615064565b8015613a1e5780601f106139f357610100808354040283529160200191613a1e565b820191906000526020600020905b815481529060010190602001808311613a0157829003601f168201915b5050509183525050600182015460209091019060ff166002811115613a4557613a4561450a565b6002811115613a5657613a5661450a565b81526001820154610100900460ff161515602080830191909152600283018054604080518285028101850182528281529401939260009084015b82821015613b3c578382906000526020600020018054613aaf90615064565b80601f0160208091040260200160405190810160405280929190818152602001828054613adb90615064565b8015613b285780601f10613afd57610100808354040283529160200191613b28565b820191906000526020600020905b815481529060010190602001808311613b0b57829003601f168201915b505050505081526020019060010190613a90565b505050508152602001600382018054613b5490615064565b80601f0160208091040260200160405190810160405280929190818152602001828054613b8090615064565b8015613bcd5780601f10613ba257610100808354040283529160200191613bcd565b820191906000526020600020905b815481529060010190602001808311613bb057829003601f168201915b505050505081526020016004820154815250509050806040015115613c2457604051639ea53c5360e01b815260206004820152600c60248201526b1a5b98d95b9d1a5d9a5e995960a21b6044820152606401610cd1565b600281602001516002811115613c3c57613c3c61450a565b03613d31576001600160a01b0386166000908152600c6020526040812090613c648780614ccb565b60209081013582528101919091526040908101600020546001600160401b031690613c959060608801908801614e7b565b6001600160401b031614613cbc5760405163362a414d60e01b815260040160405180910390fd5b613ccc6060860160408701614e7b565b613cd79060016150ae565b6001600160a01b0387166000908152600c6020526040812090613cfa8880614ccb565b60200135815260200190815260200160002060006101000a8154816001600160401b0302191690836001600160401b031602179055505b604051637e1d42b560e01b81526001600160a01b03871690637e1d42b590613d5f9088908890600401615cc3565b600060405180830381600087803b158015613d7957600080fd5b505af1158015613d8d573d6000803e3d6000fd5b5050506001600160a01b0387166000908152600d602052604081209150613db48780614ccb565b6020013581526020019081526020016000206000866040016020810190613ddb9190614e7b565b6001600160401b031681526020810191909152604001600020805460ff19169055613e068580614ccb565b602001356001600160a01b0387167fe46f6591236abe528fe47a3b281fb002524dadd3e62b1f317ed285d07273c3b1613e456060890160408a01614e7b565b6040516001600160401b039091168152602001612aa4565b613e65613f44565b600254600160a01b900460ff1615613e905760405163fe5e8ac360e01b815260040160405180910390fd5b6002805460ff60a01b1916600160a01b17905560208101356003556040810135600455606081013560055560800135600655565b60408101516020820151825160009291613edd916156ed565b1115613f0357604082015160208301518351613ef991906156ed565b6114899190615d1a565b506000919050565b919050565b80516020820151600091613f23916156ed565b82604001511115613f0357815160208301516040840151613ef99190615d1a565b6000546001600160a01b031633146114a15760405162461bcd60e51b815260206004820181905260248201527f4f776e61626c653a2063616c6c6572206973206e6f7420746865206f776e65726044820152606401610cd1565b600080546001600160a01b038381166001600160a01b0319831681178455604051919092169283917f8be0079c531659141344cd1fd0a4f28419497f9722a3daafe3b4186f6b6457e09190a35050565b600061400060e0830160c08401614e7b565b6001600160401b03161580159061402f575061402260e0830160c08401614e7b565b6001600160401b03164210155b80611489575061404560c0830160a08401614e7b565b6001600160401b031615801590611489575061406760c0830160a08401614e7b565b6001600160401b031643101592915050565b6000808260200151836000015161409091906156ed565b9050808360400151116140a35780612475565b50506040015190565b600081516028146140d0576040516305229b2360e41b815260040160405180910390fd5b60408051601480825281830190925283916000919060208201818036833701905050905060005b601481101561424d5760008361410e836002615d2d565b8151811061411e5761411e615d44565b016020015160f81c9050600084614136846002615d2d565b6141419060016156ed565b8151811061415157614151615d44565b016020015160f81c9050604160ff8316108015906141735750605a8260ff1611155b1561418657614183602083615d5a565b91505b60418160ff161015801561419e5750605a8160ff1611155b156141b1576141ae602082615d5a565b90505b600060618260ff1610156141c65760306141c9565b60575b6141d39083615d73565b60618460ff1610156141e65760306141e9565b60575b6141f39085615d73565b6141fe906010615d8c565b6142089190615d5a565b90508060f81b85858151811061422057614220615d44565b60200101906001600160f81b031916908160001a905350505050808061424590615da8565b9150506140f7565b50601401519392505050565b82805482825590600052602060002090810192821561429f579160200282015b8281111561429f578251829061428f9082615b9a565b5091602001919060010190614279565b506142ab929150614303565b5090565b5080546142bb90615064565b6000825580601f106142cb575050565b601f0160209004906000526020600020908101906137ec9190614320565b50805460008255906000526020600020908101906137ec91905b808211156142ab57600061431782826142af565b50600101614303565b5b808211156142ab5760008155600101614321565b6001600160a01b03811681146137ec57600080fd5b8035613f0b81614335565b600060e0828403121561436757600080fd5b50919050565b60006060828403121561436757600080fd5b60008060006060848603121561439457600080fd5b833561439f81614335565b925060208401356001600160401b03808211156143bb57600080fd5b6143c787838801614355565b935060408601359150808211156143dd57600080fd5b506143ea8682870161436d565b9150509250925092565b6000806000806080858703121561440a57600080fd5b843561441581614335565b935060208501356001600160401b038082111561443157600080fd5b61443d88838901614355565b9450604087013591508082111561445357600080fd5b61445f8883890161436d565b9350606087013591508082111561447557600080fd5b506144828782880161436d565b91505092959194509250565b600080604083850312156144a157600080fd5b82356144ac81614335565b946020939093013593505050565b60005b838110156144d55781810151838201526020016144bd565b50506000910152565b600081518084526144f68160208601602086016144ba565b601f01601f19169290920160200192915050565b634e487b7160e01b600052602160045260246000fd5b6003811061453e57634e487b7160e01b600052602160045260246000fd5b9052565b60006020808352835160c08285015261455e60e08501826144de565b9050818501516145716040860182614520565b506040850151151560608501526060850151601f19808684030160808701528282518085528585019150858160051b860101868501945060005b828110156145d757848783030184526145c58287516144de565b958801959388019391506001016145ab565b5060808a01519650838982030160a08a01526145f381886144de565b965050505050505060a084015160c08401528091505092915050565b60008083601f84011261462157600080fd5b5081356001600160401b0381111561463857600080fd5b602083019150836020828501011115611af457600080fd5b803560038110613f0b57600080fd5b80151581146137ec57600080fd5b8035613f0b8161465f565b60008083601f84011261468a57600080fd5b5081356001600160401b038111156146a157600080fd5b6020830191508360208260051b8501011115611af457600080fd5b600080600080600080600080600060e08a8c0312156146da57600080fd5b6146e38a61434a565b985060208a01356001600160401b03808211156146ff57600080fd5b61470b8d838e0161460f565b909a50985088915061471f60408d01614650565b975061472d60608d0161466d565b965060808c013591508082111561474357600080fd5b61474f8d838e01614678565b909650945060a08c013591508082111561476857600080fd5b6147748d838e0161436d565b935060c08c013591508082111561478a57600080fd5b506147978c828d0161436d565b9150509295985092959850929598565b600060a0828403121561436757600080fd5b6000602082840312156147cb57600080fd5b81356001600160401b038111156147e157600080fd5b6147ed848285016147a7565b949350505050565b60006020828403121561480757600080fd5b5035919050565b6000806040838503121561482157600080fd5b50508035926020909101359150565b6000806020838503121561484357600080fd5b82356001600160401b0381111561485957600080fd5b6148658582860161460f565b90969095509350505050565b6000806040838503121561488457600080fd5b823561488f81614335565b915060208301356001600160401b038111156148aa57600080fd5b6148b685828601614355565b9150509250929050565b60a0815260006148d360a08301886144de565b6148e06020840188614520565b851515604084015282810360608401526148fa81866144de565b9150508260808301529695505050505050565b80356001600160401b0381168114613f0b57600080fd5b600080600080600060c0868803121561493c57600080fd5b8535945060208601356001600160401b0381111561495957600080fd5b6149658882890161460f565b909550935061497890506040870161490d565b9150614987876060880161436d565b90509295509295909350565b60008060008060c085870312156149a957600080fd5b84356149b481614335565b9350602085013592506149c96040860161490d565b91506149d8866060870161436d565b905092959194509250565b6000806000606084860312156149f857600080fd5b8335614a0381614335565b925060208401359150614a186040850161490d565b90509250925092565b600080828403610180811215614a3657600080fd5b6080811215614a4457600080fd5b839250610100607f1982011215614a5a57600080fd5b506080830190509250929050565b600080600060408486031215614a7d57600080fd5b8335614a8881614335565b925060208401356001600160401b03811115614aa357600080fd5b614aaf8682870161460f565b9497909650939450505050565b6000806000806000806000806000806000806101208d8f031215614adf57600080fd5b614ae88d61434a565b9b5060208d01359a506001600160401b0360408e01351115614b0957600080fd5b614b198e60408f01358f01614678565b909a509850614b2a60608e01614650565b9750614b3860808e0161466d565b96506001600160401b0360a08e01351115614b5257600080fd5b614b628e60a08f01358f0161460f565b909650945060c08d013593506001600160401b0360e08e01351115614b8657600080fd5b614b968e60e08f01358f0161460f565b90935091506001600160401b036101008e01351115614bb457600080fd5b614bc58e6101008f01358f0161436d565b90509295989b509295989b509295989b565b600080600060608486031215614bec57600080fd5b8335614bf781614335565b92506020840135915060408401356001600160401b03811115614c1957600080fd5b6143ea8682870161436d565b600060208284031215614c3757600080fd5b813561247581614335565b60008060008060808587031215614c5857600080fd5b8435614c6381614335565b935060208501356001600160401b0380821115614c7f57600080fd5b614c8b88838901614355565b94506040870135915080821115614ca157600080fd5b9086019060408289031215614cb557600080fd5b9092506060860135908082111561447557600080fd5b60008235603e19833603018112614ce157600080fd5b9190910192915050565b6000808335601e19843603018112614d0257600080fd5b8301803591506001600160401b03821115614d1c57600080fd5b602001915036819003821315611af457600080fd5b6001600160401b0380614d438361490d565b16835280614d536020840161490d565b166020840152505050565b6000808335601e19843603018112614d7557600080fd5b83016020810192503590506001600160401b03811115614d9457600080fd5b803603821315611af457600080fd5b81835281816020850137506000828201602090810191909152601f909101601f19169091010190565b614dd68282614d31565b6000614de56040830183614d5e565b60606040860152614dfa606086018284614da3565b95945050505050565b606081526000614e166060830184614dcc565b82810380602085015260138252720e0c2c6d6cae85ee4cac6cad2e0e85ee0c2e8d606b1b602083015260408101604085015250601560408201527411985a5b081d1bc81c1c9bdd99481d1a5b595bdd5d605a1b60608201526080810191505092915050565b600060208284031215614e8d57600080fd5b6124758261490d565b60008235603e19833603018112614eac57600080fd5b90910192915050565b6000614ec18283614d5e565b60408552614ed3604086018284614da3565b915050602083013560208501528091505092915050565b6000614ef68283614e96565b60e08452614f0760e0850182614eb5565b9050614f166020840184614e96565b8482036020860152614f288282614eb5565b915050614f376040840161490d565b6001600160401b038082166040870152614f546060860186614d5e565b92508684036060880152614f69848483614da3565b935050614f7c6080870160808701614d31565b80614f8960c0870161490d565b1660c087015250508091505092915050565b6020815260006124756020830184614eea565b608081526000614fc16080830184614dcc565b828103806020850152600f82526e0c2c6d65ee0c2c6d6cae85ee0c2e8d608b1b6020830152604081016040850152602a60408301527f65787065637465642061636b20726563656970742068617368206f6e20506f6c6060830152693cb6b2b91031b430b4b760b11b608083015260a081016060850152506147ed60a0820160118152704661696c20746f2070726f76652061636b60781b602082015260400190565b600181811c9082168061507857607f821691505b60208210810361436757634e487b7160e01b600052602260045260246000fd5b634e487b7160e01b600052601160045260246000fd5b6001600160401b038181168382160190808211156150ce576150ce615098565b5092915050565b8183823760009101908152919050565b6bffffffffffffffffffffffff1981358181169160148510156151125780818660140360031b1b83161692505b505092915050565b60808101818460005b600281101561514b5781516001600160a01b0316835260209283019290910190600101615123565b505050604082018360005b6002811015615175578151835260209283019290910190600101615156565b5050509392505050565b60006020828403121561519157600080fd5b81356124758161465f565b80511515825260006020820151604060208501526147ed60408501826144de565b6040815260006151d06040830185614eea565b8281036020840152614dfa818561519c565b6080815260006151f56080830185614dcc565b828103806020850152601d82527f6368616e6e656c2f706174682f746f2f62652f61646465642f6865726500000060208301526040810160408501525061523f60408201856144de565b8381036060850152601b81527f4661696c20746f2070726f7665206368616e6e656c20737461746500000000006020820152905060408101614dfa565b81835260006020808501808196508560051b810191508460005b878110156152cc5782840389526152ad8288614d5e565b6152b8868284614da3565b9a87019a9550505090840190600101615296565b5091979650505050505050565b60e0815260006152ed60e083018d8f614da3565b6152fa602084018d614520565b8a151560408401528281036060840152615315818a8c61527c565b9050828103608084015261532a81888a614da3565b90508560a084015282810360c0840152615345818587614da3565b9e9d5050505050505050505050505050565b634e487b7160e01b600052604160045260246000fd5b604051601f8201601f191681016001600160401b038111828210171561539557615395615357565b604052919050565b60006001600160401b038211156153b6576153b6615357565b50601f01601f191660200190565b60006153d76153d28461539d565b61536d565b90508281528383830111156153eb57600080fd5b6124758360208301846144ba565b60006020828403121561540b57600080fd5b81516001600160401b0381111561542157600080fd5b8201601f8101841361543257600080fd5b6147ed848251602084016153c4565b60c08152600061545460c083018b6144de565b615461602084018b614520565b8815156040840152828103606084015261547c81888a61527c565b90508281036080840152615491818688614da3565b9150508260a08301529998505050505050505050565b8381526060602082015260006154c060608301856144de565b9050826040830152949350505050565b600080604083850312156154e357600080fd5b8251915060208301516154f58161465f565b809150509250929050565b601f82111561171c57600081815260208120601f850160051c810160208610156155275750805b601f850160051c820191505b8181101561554657828155600101615533565b505050505050565b6001600160401b0383111561556557615565615357565b615579836155738354615064565b83615500565b6000601f8411600181146155ad57600085156155955750838201355b600019600387901b1c1916600186901b178355615607565b600083815260209020601f19861690835b828110156155de57868501358255602094850194600190920191016155be565b50868210156155fb5760001960f88860031b161c19848701351681555b505060018560011b0183555b5050505050565b6001600160401b038481168252608082019061562d6020840186614d31565b808416606084015250949350505050565b60006060828403121561565057600080fd5b604051606081018181106001600160401b038211171561567257615672615357565b80604052508235815260208301356020820152604083013560408201528091505092915050565b60c0815260006156ad60c083018789614da3565b90506001600160401b0380861660208401528085166040840152508235606083015260208301356080830152604083013560a08301529695505050505050565b8082018082111561148957611489615098565b6080815260006157136080830184614dcc565b82810380602085015260168252750e0c2c6d6cae85ec6dedadad2e8dacadce85ee0c2e8d60531b6020830152604081016040850152603860408301527f6578706563746564207669727475616c207061636b657420636f6d6d69746d6560608301527f6e742068617368206f6e20506f6c796d657220636861696e0000000000000000608083015260a08101606085015250601f60a08201527f4661696c20746f2070726f7665207061636b657420636f6d6d69746d656e740060c082015260e0810191505092915050565b6000602082840312156157f157600080fd5b81516001600160401b038082111561580857600080fd5b908301906040828603121561581c57600080fd5b60405160408101818110838211171561583757615837615357565b60405282516158458161465f565b815260208301518281111561585957600080fd5b80840193505085601f84011261586e57600080fd5b61587d868451602086016153c4565b602082015295945050505050565b6001600160401b03831681526040602082015260006147ed604083018461519c565b600061020082019050845482526001808601546020840152600280870154604081818701526003890154606087015287356080870152602088013560a08701528088013560c0870152606088013560e087015280876101008801376101408601915080870160005b84811015615930578282853792820192908201908501615915565b50508060c088016101c088013750505050949350505050565b60006020828403121561595b57600080fd5b81516124758161465f565b6000808585111561597657600080fd5b8386111561598357600080fd5b5050820193919092039150565b600080835461599e81615064565b600182811680156159b657600181146159cb576159fa565b60ff19841687528215158302870194506159fa565b8760005260208060002060005b858110156159f15781548a8201529084019082016159d8565b50505082870194505b50929695505050505050565b600080600060608486031215615a1b57600080fd5b83519250602084015191506040840151615a348161465f565b809150509250925092565b608081526000615a526080830186614dcc565b8281036020840152615a6481866144de565b90508281036040840152615a7881856144de565b8381036060850152601b81527f4661696c20746f2070726f7665206368616e6e656c207374617465000000000060208201529050604081015b9695505050505050565b848152836020820152606060408201526000615ab1606083018486614da3565b60006001600160401b0380841115615af557615af5615357565b8360051b6020615b0681830161536d565b868152918501918181019036841115615b1e57600080fd5b865b84811015615b8e57803586811115615b385760008081fd5b880136601f820112615b4a5760008081fd5b8035615b586153d28261539d565b8181523687838501011115615b6d5760008081fd5b81878401888301376000918101870191909152845250918301918301615b20565b50979650505050505050565b81516001600160401b03811115615bb357615bb3615357565b615bc781615bc18454615064565b84615500565b602080601f831160018114615bfc5760008415615be45750858301515b600019600386901b1c1916600185901b178555615546565b600085815260208120601f198616915b82811015615c2b57888601518255948401946001909101908401615c0c565b5085821015615c495787850151600019600388901b60f8161c191681555b5050505050600190811b01905550565b608081526000615c6c6080830186614dcc565b8281036020840152615c7e81866144de565b90508281036040840152615c9281856144de565b838103606085015260118152704661696c20746f2070726f76652061636b60781b6020820152905060408101615ab1565b604081526000615cd66040830185614eea565b82810360208401528335615ce98161465f565b15158152615cfa6020850185614d5e565b60406020840152615d0f604084018284614da3565b979650505050505050565b8181038181111561148957611489615098565b808202811582820484141761148957611489615098565b634e487b7160e01b600052603260045260246000fd5b60ff818116838216019081111561148957611489615098565b60ff828116828216039081111561148957611489615098565b60ff81811683821602908116908181146150ce576150ce615098565b600060018201615dba57615dba615098565b506001019056fe6578706563746564206368616e6e656c20627974657320636f6e73747275637465642066726f6d20706172616d732e204368616e6e656c2e5374617465203d207b41636b5f50656e64696e672c20436f6e6669726d5f50656e64696e677d6578706563746564206368616e6e656c20627974657320636f6e73747275637465642066726f6d20706172616d732e204368616e6e656c2e5374617465203d207b436c6f736564285f50656e64696e673f297d6578706563746564206368616e6e656c20627974657320636f6e73747275637465642066726f6d20706172616d732e204368616e6e656c2e5374617465203d207b5472795f50656e64696e677d65787065637465642061636b20726563656970742068617368206f6e20506f6c796d657220636861696ea2646970667358221220d3c745d5964168763dfbaf37d9dbc1d29bae1ca01a794e3b891a53637a6969d264736f6c63430008140033",
    "linkReferences": {}
  },
  "methodIdentifiers": {
    "acknowledgement(address,((string,bytes32),(string,bytes32),uint64,bytes,(uint64,uint64),uint64),(bool,bytes),((uint64,uint64),bytes))": "f4eac785",
    "closeIbcChannel(bytes32)": "8b24b4cb",
    "connectIbcChannel(address,bytes32,string[],uint8,bool,string,bytes32,string,((uint64,uint64),bytes))": "ecb03929",
    "createClient((bytes,(uint256,uint256,uint256,uint256)))": "f4ecbb15",
    "getChannel(address,bytes32)": "42852d24",
    "getOptimisticConsensusState(uint256)": "eb86ffdb",
    "getTotalPacketFees(address,bytes32,uint64)": "d58be73c",
    "incentivizedAcknowledgement(address,((string,bytes32),(string,bytes32),uint64,bytes,(uint64,uint64),uint64),(bool,bytes,bytes),((uint64,uint64),bytes))": "19448863",
    "latestConsensusState()": "c2a2514d",
    "onCloseIbcChannel(address,bytes32,((uint64,uint64),bytes))": "ecbb6928",
    "openIbcChannel(address,string,uint8,bool,string[],(string,bytes32,string),((uint64,uint64),bytes))": "7e9077b0",
    "owner()": "8da5cb5b",
    "payPacketFeeAsync(address,bytes32,uint64,(uint256,uint256,uint256))": "ccc02607",
    "portChannelMap(address,bytes32)": "b2b1bf03",
    "portIdAddressMatch(address,string)": "e36e013f",
    "recvPacket(address,((string,bytes32),(string,bytes32),uint64,bytes,(uint64,uint64),uint64),((uint64,uint64),bytes))": "da4b5a8d",
    "renounceOwnership()": "715018a6",
    "sendPacket(bytes32,bytes,uint64,(uint256,uint256,uint256))": "ca034bff",
    "setPortPrefix(string)": "9f59ae71",
    "timeout(address,((string,bytes32),(string,bytes32),uint64,bytes,(uint64,uint64),uint64),((uint64,uint64),bytes))": "0080d0b1",
    "transferOwnership(address)": "f2fde38b",
    "updateClientWithConsensusState((uint256,uint256,uint256,uint256),(uint256[2],uint256[2][2],uint256[2]))": "dece4d01",
    "updateClientWithOptimisticConsensusState(uint256,uint256)": "9eb49818",
    "upgradeClient((bytes,(uint256,uint256,uint256,uint256)))": "80840e6b",
    "writeTimeoutPacket(address,((string,bytes32),(string,bytes32),uint64,bytes,(uint64,uint64),uint64))": "ac9c50b6"
  },
  "id": 1
}